{
  "_format": "hh-sol-artifact-1",
  "contractName": "TalosRegistry",
  "sourceName": "src/TalosRegistry.sol",
  "abi": [
    {
      "inputs": [
        {
          "internalType": "address",
          "name": "protocolWallet_",
          "type": "address"
        }
      ],
      "stateMutability": "nonpayable",
      "type": "constructor"
    },
    {
      "inputs": [],
      "name": "InvalidPulse",
      "type": "error"
    },
    {
      "inputs": [],
      "name": "InvalidShares",
      "type": "error"
    },
    {
      "inputs": [
        {
          "internalType": "address",
          "name": "owner",
          "type": "address"
        }
      ],
      "name": "OwnableInvalidOwner",
      "type": "error"
    },
    {
      "inputs": [
        {
          "internalType": "address",
          "name": "account",
          "type": "address"
        }
      ],
      "name": "OwnableUnauthorizedAccount",
      "type": "error"
    },
    {
      "inputs": [],
      "name": "StringTooLong",
      "type": "error"
    },
    {
      "inputs": [],
      "name": "TalosNotFound",
      "type": "error"
    },
    {
      "inputs": [],
      "name": "Unauthorized",
      "type": "error"
    },
    {
      "inputs": [],
      "name": "ZeroAddress",
      "type": "error"
    },
    {
      "anonymous": false,
      "inputs": [
        {
          "indexed": true,
          "internalType": "address",
          "name": "previousOwner",
          "type": "address"
        },
        {
          "indexed": true,
          "internalType": "address",
          "name": "newOwner",
          "type": "address"
        }
      ],
      "name": "OwnershipTransferStarted",
      "type": "event"
    },
    {
      "anonymous": false,
      "inputs": [
        {
          "indexed": true,
          "internalType": "address",
          "name": "previousOwner",
          "type": "address"
        },
        {
          "indexed": true,
          "internalType": "address",
          "name": "newOwner",
          "type": "address"
        }
      ],
      "name": "OwnershipTransferred",
      "type": "event"
    },
    {
      "anonymous": false,
      "inputs": [
        {
          "indexed": true,
          "internalType": "uint256",
          "name": "talosId",
          "type": "uint256"
        },
        {
          "indexed": false,
          "internalType": "uint32",
          "name": "creatorShare",
          "type": "uint32"
        },
        {
          "indexed": false,
          "internalType": "uint32",
          "name": "investorShare",
          "type": "uint32"
        },
        {
          "indexed": false,
          "internalType": "uint32",
          "name": "treasuryShare",
          "type": "uint32"
        }
      ],
      "name": "PatronUpdated",
      "type": "event"
    },
    {
      "anonymous": false,
      "inputs": [
        {
          "indexed": true,
          "internalType": "address",
          "name": "protocolWallet",
          "type": "address"
        }
      ],
      "name": "ProtocolWalletUpdated",
      "type": "event"
    },
    {
      "anonymous": false,
      "inputs": [
        {
          "indexed": true,
          "internalType": "uint256",
          "name": "talosId",
          "type": "uint256"
        },
        {
          "indexed": true,
          "internalType": "address",
          "name": "creator",
          "type": "address"
        },
        {
          "indexed": false,
          "internalType": "string",
          "name": "name",
          "type": "string"
        }
      ],
      "name": "TalosCreated",
      "type": "event"
    },
    {
      "inputs": [],
      "name": "PROTOCOL_FEE_BPS",
      "outputs": [
        {
          "internalType": "uint32",
          "name": "",
          "type": "uint32"
        }
      ],
      "stateMutability": "view",
      "type": "function"
    },
    {
      "inputs": [],
      "name": "acceptOwnership",
      "outputs": [],
      "stateMutability": "nonpayable",
      "type": "function"
    },
    {
      "inputs": [
        {
          "internalType": "string",
          "name": "name",
          "type": "string"
        },
        {
          "internalType": "string",
          "name": "category",
          "type": "string"
        },
        {
          "internalType": "string",
          "name": "description",
          "type": "string"
        },
        {
          "components": [
            {
              "internalType": "uint32",
              "name": "creatorShare",
              "type": "uint32"
            },
            {
              "internalType": "uint32",
              "name": "investorShare",
              "type": "uint32"
            },
            {
              "internalType": "uint32",
              "name": "treasuryShare",
              "type": "uint32"
            },
            {
              "internalType": "address",
              "name": "creatorAddr",
              "type": "address"
            },
            {
              "internalType": "address",
              "name": "investorAddr",
              "type": "address"
            },
            {
              "internalType": "address",
              "name": "treasuryAddr",
              "type": "address"
            }
          ],
          "internalType": "struct TalosRegistry.Patron",
          "name": "patron",
          "type": "tuple"
        },
        {
          "components": [
            {
              "internalType": "uint256",
              "name": "approvalThreshold",
              "type": "uint256"
            },
            {
              "internalType": "uint256",
              "name": "gtmBudget",
              "type": "uint256"
            },
            {
              "internalType": "uint256",
              "name": "minPatronPulse",
              "type": "uint256"
            }
          ],
          "internalType": "struct TalosRegistry.Kernel",
          "name": "kernel",
          "type": "tuple"
        },
        {
          "components": [
            {
              "internalType": "uint256",
              "name": "totalSupply",
              "type": "uint256"
            },
            {
              "internalType": "uint256",
              "name": "priceUsdCents",
              "type": "uint256"
            },
            {
              "internalType": "string",
              "name": "tokenSymbol",
              "type": "string"
            }
          ],
          "internalType": "struct TalosRegistry.Pulse",
          "name": "pulse",
          "type": "tuple"
        }
      ],
      "name": "createTalos",
      "outputs": [
        {
          "internalType": "uint256",
          "name": "talosId",
          "type": "uint256"
        }
      ],
      "stateMutability": "nonpayable",
      "type": "function"
    },
    {
      "inputs": [
        {
          "internalType": "uint256",
          "name": "",
          "type": "uint256"
        }
      ],
      "name": "creatorOf",
      "outputs": [
        {
          "internalType": "address",
          "name": "",
          "type": "address"
        }
      ],
      "stateMutability": "view",
      "type": "function"
    },
    {
      "inputs": [
        {
          "internalType": "uint256",
          "name": "talosId",
          "type": "uint256"
        }
      ],
      "name": "deactivateTalos",
      "outputs": [],
      "stateMutability": "nonpayable",
      "type": "function"
    },
    {
      "inputs": [
        {
          "internalType": "uint256",
          "name": "talosId",
          "type": "uint256"
        }
      ],
      "name": "getTalos",
      "outputs": [
        {
          "components": [
            {
              "internalType": "uint256",
              "name": "id",
              "type": "uint256"
            },
            {
              "internalType": "string",
              "name": "name",
              "type": "string"
            },
            {
              "internalType": "string",
              "name": "category",
              "type": "string"
            },
            {
              "internalType": "string",
              "name": "description",
              "type": "string"
            },
            {
              "internalType": "address",
              "name": "creator",
              "type": "address"
            },
            {
              "components": [
                {
                  "internalType": "uint32",
                  "name": "creatorShare",
                  "type": "uint32"
                },
                {
                  "internalType": "uint32",
                  "name": "investorShare",
                  "type": "uint32"
                },
                {
                  "internalType": "uint32",
                  "name": "treasuryShare",
                  "type": "uint32"
                },
                {
                  "internalType": "address",
                  "name": "creatorAddr",
                  "type": "address"
                },
                {
                  "internalType": "address",
                  "name": "investorAddr",
                  "type": "address"
                },
                {
                  "internalType": "address",
                  "name": "treasuryAddr",
                  "type": "address"
                }
              ],
              "internalType": "struct TalosRegistry.Patron",
              "name": "patron",
              "type": "tuple"
            },
            {
              "components": [
                {
                  "internalType": "uint256",
                  "name": "approvalThreshold",
                  "type": "uint256"
                },
                {
                  "internalType": "uint256",
                  "name": "gtmBudget",
                  "type": "uint256"
                },
                {
                  "internalType": "uint256",
                  "name": "minPatronPulse",
                  "type": "uint256"
                }
              ],
              "internalType": "struct TalosRegistry.Kernel",
              "name": "kernel",
              "type": "tuple"
            },
            {
              "components": [
                {
                  "internalType": "uint256",
                  "name": "totalSupply",
                  "type": "uint256"
                },
                {
                  "internalType": "uint256",
                  "name": "priceUsdCents",
                  "type": "uint256"
                },
                {
                  "internalType": "string",
                  "name": "tokenSymbol",
                  "type": "string"
                }
              ],
              "internalType": "struct TalosRegistry.Pulse",
              "name": "pulse",
              "type": "tuple"
            },
            {
              "internalType": "uint64",
              "name": "createdAt",
              "type": "uint64"
            },
            {
              "internalType": "bool",
              "name": "active",
              "type": "bool"
            }
          ],
          "internalType": "struct TalosRegistry.Talos",
          "name": "",
          "type": "tuple"
        }
      ],
      "stateMutability": "view",
      "type": "function"
    },
    {
      "inputs": [
        {
          "internalType": "uint256",
          "name": "talosId",
          "type": "uint256"
        }
      ],
      "name": "isActive",
      "outputs": [
        {
          "internalType": "bool",
          "name": "",
          "type": "bool"
        }
      ],
      "stateMutability": "view",
      "type": "function"
    },
    {
      "inputs": [],
      "name": "nextTalosId",
      "outputs": [
        {
          "internalType": "uint256",
          "name": "",
          "type": "uint256"
        }
      ],
      "stateMutability": "view",
      "type": "function"
    },
    {
      "inputs": [],
      "name": "owner",
      "outputs": [
        {
          "internalType": "address",
          "name": "",
          "type": "address"
        }
      ],
      "stateMutability": "view",
      "type": "function"
    },
    {
      "inputs": [],
      "name": "pendingOwner",
      "outputs": [
        {
          "internalType": "address",
          "name": "",
          "type": "address"
        }
      ],
      "stateMutability": "view",
      "type": "function"
    },
    {
      "inputs": [],
      "name": "protocolFeeBps",
      "outputs": [
        {
          "internalType": "uint32",
          "name": "",
          "type": "uint32"
        }
      ],
      "stateMutability": "pure",
      "type": "function"
    },
    {
      "inputs": [],
      "name": "protocolWallet",
      "outputs": [
        {
          "internalType": "address",
          "name": "",
          "type": "address"
        }
      ],
      "stateMutability": "view",
      "type": "function"
    },
    {
      "inputs": [],
      "name": "renounceOwnership",
      "outputs": [],
      "stateMutability": "nonpayable",
      "type": "function"
    },
    {
      "inputs": [
        {
          "internalType": "address",
          "name": "protocolWallet_",
          "type": "address"
        }
      ],
      "name": "setProtocolWallet",
      "outputs": [],
      "stateMutability": "nonpayable",
      "type": "function"
    },
    {
      "inputs": [
        {
          "internalType": "address",
          "name": "newOwner",
          "type": "address"
        }
      ],
      "name": "transferOwnership",
      "outputs": [],
      "stateMutability": "nonpayable",
      "type": "function"
    },
    {
      "inputs": [
        {
          "internalType": "uint256",
          "name": "talosId",
          "type": "uint256"
        },
        {
          "components": [
            {
              "internalType": "uint256",
              "name": "approvalThreshold",
              "type": "uint256"
            },
            {
              "internalType": "uint256",
              "name": "gtmBudget",
              "type": "uint256"
            },
            {
              "internalType": "uint256",
              "name": "minPatronPulse",
              "type": "uint256"
            }
          ],
          "internalType": "struct TalosRegistry.Kernel",
          "name": "kernel",
          "type": "tuple"
        }
      ],
      "name": "updateKernel",
      "outputs": [],
      "stateMutability": "nonpayable",
      "type": "function"
    },
    {
      "inputs": [
        {
          "internalType": "uint256",
          "name": "talosId",
          "type": "uint256"
        },
        {
          "components": [
            {
              "internalType": "uint32",
              "name": "creatorShare",
              "type": "uint32"
            },
            {
              "internalType": "uint32",
              "name": "investorShare",
              "type": "uint32"
            },
            {
              "internalType": "uint32",
              "name": "treasuryShare",
              "type": "uint32"
            },
            {
              "internalType": "address",
              "name": "creatorAddr",
              "type": "address"
            },
            {
              "internalType": "address",
              "name": "investorAddr",
              "type": "address"
            },
            {
              "internalType": "address",
              "name": "treasuryAddr",
              "type": "address"
            }
          ],
          "internalType": "struct TalosRegistry.Patron",
          "name": "patron",
          "type": "tuple"
        }
      ],
      "name": "updatePatron",
      "outputs": [],
      "stateMutability": "nonpayable",
      "type": "function"
    },
    {
      "inputs": [
        {
          "internalType": "uint256",
          "name": "talosId",
          "type": "uint256"
        },
        {
          "components": [
            {
              "internalType": "uint256",
              "name": "totalSupply",
              "type": "uint256"
            },
            {
              "internalType": "uint256",
              "name": "priceUsdCents",
              "type": "uint256"
            },
            {
              "internalType": "string",
              "name": "tokenSymbol",
              "type": "string"
            }
          ],
          "internalType": "struct TalosRegistry.Pulse",
          "name": "pulse",
          "type": "tuple"
        }
      ],
      "name": "updatePulse",
      "outputs": [],
      "stateMutability": "nonpayable",
      "type": "function"
    }
  ],
  "bytecode": "0x60806040523480156200001157600080fd5b506040516200196938038062001969833981016040819052620000349162000128565b33806200005b57604051631e4fbdf760e01b81526000600482015260240160405180910390fd5b6200006681620000ba565b506001600160a01b0381166200008f5760405163d92e233d60e01b815260040160405180910390fd5b600280546001600160a01b0319166001600160a01b039290921691909117905560016003556200015a565b600180546001600160a01b0319169055620000d581620000d8565b50565b600080546001600160a01b038381166001600160a01b0319831681178455604051919092169283917f8be0079c531659141344cd1fd0a4f28419497f9722a3daafe3b4186f6b6457e09190a35050565b6000602082840312156200013b57600080fd5b81516001600160a01b03811681146200015357600080fd5b9392505050565b6117ff806200016a6000396000f3fe608060405234801561001057600080fd5b50600436106101165760003560e01c80638da5cb5b116100a2578063e30c397811610071578063e30c397814610250578063e556887a14610261578063ed0c0d6f14610274578063f01e9a8b14610287578063f2fde38b1461029a57600080fd5b80638da5cb5b1461020c57806395e3f86e1461021d578063be37822814610234578063cbdb314b1461023d57600080fd5b806335659fb8116100e957806335659fb814610197578063589a1743146101b0578063715018a6146101d957806379ba5097146101e157806382afd23b146101e957600080fd5b8063047b094a1461011b57806306d6e63f146101445780631d8b9ef21461016f5780632132a99b14610184575b600080fd5b61012e610129366004610f66565b6102ad565b60405161013b9190610ff6565b60405180910390f35b600254610157906001600160a01b031681565b6040516001600160a01b03909116815260200161013b565b61018261017d366004610f66565b610650565b005b610182610192366004611169565b6106c2565b61012c5b60405163ffffffff909116815260200161013b565b6101576101be366004610f66565b6005602052600090815260409020546001600160a01b031681565b61018261076d565b610182610781565b6101fc6101f7366004610f66565b6107ca565b604051901515815260200161013b565b6000546001600160a01b0316610157565b61022660035481565b60405190815260200161013b565b61019b61012c81565b61022661024b36600461120b565b610805565b6001546001600160a01b0316610157565b61018261026f3660046112f1565b610a7e565b61018261028236600461131e565b610afe565b610182610295366004611357565b610bf0565b6101826102a8366004611357565b610c69565b6102b5610e62565b60008281526004602052604081205490036102e357604051632fc1a59f60e11b815260040160405180910390fd5b60046000838152602001908152602001600020604051806101400160405290816000820154815260200160018201805461031c9061137b565b80601f01602080910402602001604051908101604052809291908181526020018280546103489061137b565b80156103955780601f1061036a57610100808354040283529160200191610395565b820191906000526020600020905b81548152906001019060200180831161037857829003601f168201915b505050505081526020016002820180546103ae9061137b565b80601f01602080910402602001604051908101604052809291908181526020018280546103da9061137b565b80156104275780601f106103fc57610100808354040283529160200191610427565b820191906000526020600020905b81548152906001019060200180831161040a57829003601f168201915b505050505081526020016003820180546104409061137b565b80601f016020809104026020016040519081016040528092919081815260200182805461046c9061137b565b80156104b95780601f1061048e576101008083540402835291602001916104b9565b820191906000526020600020905b81548152906001019060200180831161049c57829003601f168201915b505050918352505060048201546001600160a01b039081166020808401919091526040805160c081018252600586015463ffffffff80821683526401000000008204811683860152600160401b82041682840152600160601b9004841660608083019190915260068701548516608080840191909152600788015490951660a0830152828601919091528151808201835260088701548152600987015481850152600a870154818401528186015281519081018252600b860180548252600c87015493820193909352600d86018054949095019490939184019161059c9061137b565b80601f01602080910402602001604051908101604052809291908181526020018280546105c89061137b565b80156106155780601f106105ea57610100808354040283529160200191610615565b820191906000526020600020905b8154815290600101906020018083116105f857829003601f168201915b505050919092525050508152600e919091015467ffffffffffffffff81166020830152600160401b900460ff16151560409091015292915050565b6000818152600460205260408120805490910361068057604051632fc1a59f60e11b815260040160405180910390fd5b60048101546001600160a01b031633146106ac576040516282b42960e81b815260040160405180910390fd5b600e01805468ff00000000000000001916905550565b600082815260046020526040812080549091036106f257604051632fc1a59f60e11b815260040160405180910390fd5b60048101546001600160a01b0316331461071e576040516282b42960e81b815260040160405180910390fd5b61072782610cda565b601061073660408401846113af565b9050111561075757604051631623655b60e31b815260040160405180910390fd5b81600b8201610766828261151d565b5050505050565b610775610cfc565b61077f6000610d29565b565b60015433906001600160a01b031681146107be5760405163118cdaa760e01b81526001600160a01b03821660048201526024015b60405180910390fd5b6107c781610d29565b50565b600081815260046020526040812054158015906107ff57506000828152600460205260409020600e0154600160401b900460ff165b92915050565b60006108176080850160608601611357565b6001600160a01b0316336001600160a01b031614610847576040516282b42960e81b815260040160405180910390fd5b61085084610d42565b61085982610cda565b8815806108665750604089115b1561088457604051631623655b60e31b815260040160405180910390fd5b60408711156108a657604051631623655b60e31b815260040160405180910390fd5b6104008511156108c957604051631623655b60e31b815260040160405180910390fd5b60106108d860408401846113af565b905011156108f957604051631623655b60e31b815260040160405180910390fd5b5060035460008181526004602052604090208181556001810161091d8b8d8361145d565b506002810161092d898b8361145d565b506003810161093d87898361145d565b5061094e6080860160608701611357565b6004820180546001600160a01b0319166001600160a01b0392909216919091179055846005820161097f8282611662565b505083356008820155602084013560098201556040840135600a82015582600b82016109ab828261151d565b5050600e8101805468ffffffffffffffffff191667ffffffffffffffff421617600160401b1790556109e36080860160608701611357565b600083815260056020526040902080546001600160a01b0319166001600160a01b0392909216919091179055610a1a82600161175c565b600355610a2d6080860160608701611357565b6001600160a01b0316827f13a0f02e6e9faddb0e65b0322b5c9568b4b301b95e6fe1debb60494c911f50e18d8d604051610a6892919061177d565b60405180910390a3509998505050505050505050565b60008281526004602052604081208054909103610aae57604051632fc1a59f60e11b815260040160405180910390fd5b60048101546001600160a01b03163314610ada576040516282b42960e81b815260040160405180910390fd5b813560088201908155602083013560098301556040830135600a8301558290610766565b60008281526004602052604081208054909103610b2e57604051632fc1a59f60e11b815260040160405180910390fd5b60048101546001600160a01b03163314610b5a576040516282b42960e81b815260040160405180910390fd5b610b6382610d42565b8160058201610b728282611662565b508390507f7d35432957258be51138a7cbadf1f571e917b5b5a4e860e059484e191d9ee564610ba460208501856117ac565b610bb460408601602087016117ac565b610bc460608701604088016117ac565b6040805163ffffffff9485168152928416602084015292168183015290519081900360600190a2505050565b610bf8610cfc565b6001600160a01b038116610c1f5760405163d92e233d60e01b815260040160405180910390fd5b600280546001600160a01b0319166001600160a01b0383169081179091556040517fb916d07c980006ab0bae9d0dcc612a069bcba68647e0c53e2a153fc1a6761ee490600090a250565b610c71610cfc565b600180546001600160a01b0383166001600160a01b03199091168117909155610ca26000546001600160a01b031690565b6001600160a01b03167f38d16b8cac22d99fc7c124b9cd0de2d3fa1faef420bfe791d8c362d765e2270060405160405180910390a350565b80356000036107c757604051639763439960e01b815260040160405180910390fd5b6000546001600160a01b0316331461077f5760405163118cdaa760e01b81523360048201526024016107b5565b600180546001600160a01b03191690556107c781610e12565b6000610d5460a0830160808401611357565b6001600160a01b03161480610d8157506000610d7660c0830160a08401611357565b6001600160a01b0316145b15610d9f5760405163d92e233d60e01b815260040160405180910390fd5b610daf60608201604083016117ac565b63ffffffff16610dc560408301602084016117ac565b63ffffffff16610dd860208401846117ac565b63ffffffff16610de8919061175c565b610df2919061175c565b6064146107c757604051636edcc52360e01b815260040160405180910390fd5b600080546001600160a01b038381166001600160a01b0319831681178455604051919092169283917f8be0079c531659141344cd1fd0a4f28419497f9722a3daafe3b4186f6b6457e09190a35050565b6040518061014001604052806000815260200160608152602001606081526020016060815260200160006001600160a01b03168152602001610f006040518060c00160405280600063ffffffff168152602001600063ffffffff168152602001600063ffffffff16815260200160006001600160a01b0316815260200160006001600160a01b0316815260200160006001600160a01b031681525090565b8152602001610f2960405180606001604052806000815260200160008152602001600081525090565b8152602001610f5260405180606001604052806000815260200160008152602001606081525090565b815260006020820181905260409091015290565b600060208284031215610f7857600080fd5b5035919050565b6000815180845260005b81811015610fa557602081850181015186830182015201610f89565b506000602082860101526020601f19601f83011685010191505092915050565b80518252602081015160208301526000604082015160606040850152610fee6060850182610f7f565b949350505050565b60208152815160208201526000602083015161022080604085015261101f610240850183610f7f565b91506040850151601f198086850301606087015261103d8483610f7f565b9350606087015191508086850301608087015261105a8483610f7f565b93506080870151915061107860a08701836001600160a01b03169052565b60a087810151805163ffffffff90811660c08a01526020820151811660e08a015260408201511661010089015260608101516001600160a01b039081166101208a0152608082015181166101408a015291810151909116610160880152915060c0870151805161018088015260208101516101a088015260408101516101c0880152915060e0870151915080868503016101e0870152506111198382610fc5565b92505061010085015161113961020086018267ffffffffffffffff169052565b50610120850151801515858301525090949350505050565b60006060828403121561116357600080fd5b50919050565b6000806040838503121561117c57600080fd5b82359150602083013567ffffffffffffffff81111561119a57600080fd5b6111a685828601611151565b9150509250929050565b60008083601f8401126111c257600080fd5b50813567ffffffffffffffff8111156111da57600080fd5b6020830191508360208285010111156111f257600080fd5b9250929050565b600060c0828403121561116357600080fd5b60008060008060008060008060006101a08a8c03121561122a57600080fd5b893567ffffffffffffffff8082111561124257600080fd5b61124e8d838e016111b0565b909b50995060208c013591508082111561126757600080fd5b6112738d838e016111b0565b909950975060408c013591508082111561128c57600080fd5b6112988d838e016111b0565b90975095508591506112ad8d60608e016111f9565b94506112bd8d6101208e01611151565b93506101808c01359150808211156112d457600080fd5b506112e18c828d01611151565b9150509295985092959850929598565b6000806080838503121561130457600080fd5b823591506113158460208501611151565b90509250929050565b60008060e0838503121561133157600080fd5b8235915061131584602085016111f9565b6001600160a01b03811681146107c757600080fd5b60006020828403121561136957600080fd5b813561137481611342565b9392505050565b600181811c9082168061138f57607f821691505b60208210810361116357634e487b7160e01b600052602260045260246000fd5b6000808335601e198436030181126113c657600080fd5b83018035915067ffffffffffffffff8211156113e157600080fd5b6020019150368190038213156111f257600080fd5b634e487b7160e01b600052604160045260246000fd5b601f821115611458576000816000526020600020601f850160051c810160208610156114355750805b601f850160051c820191505b8181101561145457828155600101611441565b5050505b505050565b67ffffffffffffffff831115611475576114756113f6565b61148983611483835461137b565b8361140c565b6000601f8411600181146114bd57600085156114a55750838201355b600019600387901b1c1916600186901b178355610766565b600083815260209020601f19861690835b828110156114ee57868501358255602094850194600190920191016114ce565b508682101561150b5760001960f88860031b161c19848701351681555b505060018560011b0183555050505050565b8135815560016020808401356001840155600283016040850135601e1986360301811261154957600080fd5b8501803567ffffffffffffffff81111561156257600080fd5b803603848301131561157357600080fd5b61158781611581855461137b565b8561140c565b6000601f8211600181146115bd57600083156115a557508382018601355b600019600385901b1c1916600184901b178555611618565b600085815260209020601f19841690835b828110156115ed578685018901358255938801939089019088016115ce565b508482101561160c5760001960f88660031b161c198885880101351681555b505060018360011b0185555b505050505050505050565b63ffffffff811681146107c757600080fd5b600081356107ff81611342565b80546001600160a01b0319166001600160a01b0392909216919091179055565b813561166d81611623565b63ffffffff8116905081548163ffffffff198216178355602084013561169281611623565b67ffffffff000000008160201b169050808367ffffffffffffffff1984161717845560408501356116c281611623565b6bffffffff00000000000000008160401b16846bffffffffffffffffffffffff198516178317178555505050506117286116fe60608401611635565b82546bffffffffffffffffffffffff1660609190911b6bffffffffffffffffffffffff1916178255565b61174061173760808401611635565b60018301611642565b61175861174f60a08401611635565b60028301611642565b5050565b808201808211156107ff57634e487b7160e01b600052601160045260246000fd5b60208152816020820152818360408301376000818301604090810191909152601f909201601f19160101919050565b6000602082840312156117be57600080fd5b81356113748161162356fea26469706673582212204bf8972a3529b7517d235c57c7eeff0fdb7aa6aa2c1c5339845ec2a1e5d356fd64736f6c63430008180033",
  "linkReferences": {},
  "deployedLinkReferences": {}
}