{"src/TalosRegistry.sol":{"TalosRegistry":{"abi":[{"inputs":[{"internalType":"address","name":"protocolWallet_","type":"address"}],"stateMutability":"nonpayable","type":"constructor"},{"inputs":[],"name":"AlreadyInitialized","type":"error"},{"inputs":[],"name":"NotInitialized","type":"error"},{"inputs":[],"name":"TalosNotFound","type":"error"},{"inputs":[],"name":"Unauthorized","type":"error"},{"anonymous":false,"inputs":[{"indexed":true,"internalType":"uint256","name":"talosId","type":"uint256"},{"indexed":false,"internalType":"uint32","name":"creatorShare","type":"uint32"},{"indexed":false,"internalType":"uint32","name":"investorShare","type":"uint32"}],"name":"PatronUpdated","type":"event"},{"anonymous":false,"inputs":[{"indexed":true,"internalType":"uint256","name":"talosId","type":"uint256"},{"indexed":true,"internalType":"address","name":"creator","type":"address"},{"indexed":false,"internalType":"string","name":"name","type":"string"}],"name":"TalosCreated","type":"event"},{"inputs":[],"name":"PROTOCOL_FEE_BPS","outputs":[{"internalType":"uint32","name":"","type":"uint32"}],"stateMutability":"view","type":"function"},{"inputs":[{"internalType":"string","name":"name","type":"string"},{"internalType":"string","name":"category","type":"string"},{"internalType":"string","name":"description","type":"string"},{"components":[{"internalType":"uint32","name":"creatorShare","type":"uint32"},{"internalType":"uint32","name":"investorShare","type":"uint32"},{"internalType":"uint32","name":"treasuryShare","type":"uint32"},{"internalType":"address","name":"creatorAddr","type":"address"},{"internalType":"address","name":"investorAddr","type":"address"},{"internalType":"address","name":"treasuryAddr","type":"address"}],"internalType":"struct TalosRegistry.Patron","name":"patron","type":"tuple"},{"components":[{"internalType":"int256","name":"approvalThreshold","type":"int256"},{"internalType":"int256","name":"gtmBudget","type":"int256"},{"internalType":"int256","name":"minPatronPulse","type":"int256"}],"internalType":"struct TalosRegistry.Kernel","name":"kernel","type":"tuple"},{"components":[{"internalType":"int256","name":"totalSupply","type":"int256"},{"internalType":"int256","name":"priceUsdCents","type":"int256"},{"internalType":"string","name":"tokenSymbol","type":"string"}],"internalType":"struct TalosRegistry.Pulse","name":"pulse","type":"tuple"}],"name":"createTalos","outputs":[{"internalType":"uint256","name":"talosId","type":"uint256"}],"stateMutability":"nonpayable","type":"function"},{"inputs":[{"internalType":"uint256","name":"","type":"uint256"}],"name":"creatorOf","outputs":[{"internalType":"address","name":"","type":"address"}],"stateMutability":"view","type":"function"},{"inputs":[{"internalType":"uint256","name":"talosId","type":"uint256"}],"name":"deactivateTalos","outputs":[],"stateMutability":"nonpayable","type":"function"},{"inputs":[{"internalType":"uint256","name":"talosId","type":"uint256"}],"name":"getTalos","outputs":[{"components":[{"internalType":"uint256","name":"id","type":"uint256"},{"internalType":"string","name":"name","type":"string"},{"internalType":"string","name":"category","type":"string"},{"internalType":"string","name":"description","type":"string"},{"internalType":"address","name":"creator","type":"address"},{"components":[{"internalType":"uint32","name":"creatorShare","type":"uint32"},{"internalType":"uint32","name":"investorShare","type":"uint32"},{"internalType":"uint32","name":"treasuryShare","type":"uint32"},{"internalType":"address","name":"creatorAddr","type":"address"},{"internalType":"address","name":"investorAddr","type":"address"},{"internalType":"address","name":"treasuryAddr","type":"address"}],"internalType":"struct TalosRegistry.Patron","name":"patron","type":"tuple"},{"components":[{"internalType":"int256","name":"approvalThreshold","type":"int256"},{"internalType":"int256","name":"gtmBudget","type":"int256"},{"internalType":"int256","name":"minPatronPulse","type":"int256"}],"internalType":"struct TalosRegistry.Kernel","name":"kernel","type":"tuple"},{"components":[{"internalType":"int256","name":"totalSupply","type":"int256"},{"internalType":"int256","name":"priceUsdCents","type":"int256"},{"internalType":"string","name":"tokenSymbol","type":"string"}],"internalType":"struct TalosRegistry.Pulse","name":"pulse","type":"tuple"},{"internalType":"uint64","name":"createdAt","type":"uint64"},{"internalType":"bool","name":"active","type":"bool"}],"internalType":"struct TalosRegistry.Talos","name":"","type":"tuple"}],"stateMutability":"view","type":"function"},{"inputs":[{"internalType":"uint256","name":"talosId","type":"uint256"}],"name":"isActive","outputs":[{"internalType":"bool","name":"","type":"bool"}],"stateMutability":"view","type":"function"},{"inputs":[],"name":"nextTalosId","outputs":[{"internalType":"uint256","name":"","type":"uint256"}],"stateMutability":"view","type":"function"},{"inputs":[],"name":"owner","outputs":[{"internalType":"address","name":"","type":"address"}],"stateMutability":"view","type":"function"},{"inputs":[],"name":"protocolFeeBps","outputs":[{"internalType":"uint32","name":"","type":"uint32"}],"stateMutability":"pure","type":"function"},{"inputs":[],"name":"protocolWallet","outputs":[{"internalType":"address","name":"","type":"address"}],"stateMutability":"view","type":"function"},{"inputs":[{"internalType":"address","name":"protocolWallet_","type":"address"}],"name":"setProtocolWallet","outputs":[],"stateMutability":"nonpayable","type":"function"},{"inputs":[{"internalType":"uint256","name":"talosId","type":"uint256"},{"components":[{"internalType":"int256","name":"approvalThreshold","type":"int256"},{"internalType":"int256","name":"gtmBudget","type":"int256"},{"internalType":"int256","name":"minPatronPulse","type":"int256"}],"internalType":"struct TalosRegistry.Kernel","name":"kernel","type":"tuple"}],"name":"updateKernel","outputs":[],"stateMutability":"nonpayable","type":"function"},{"inputs":[{"internalType":"uint256","name":"talosId","type":"uint256"},{"components":[{"internalType":"uint32","name":"creatorShare","type":"uint32"},{"internalType":"uint32","name":"investorShare","type":"uint32"},{"internalType":"uint32","name":"treasuryShare","type":"uint32"},{"internalType":"address","name":"creatorAddr","type":"address"},{"internalType":"address","name":"investorAddr","type":"address"},{"internalType":"address","name":"treasuryAddr","type":"address"}],"internalType":"struct TalosRegistry.Patron","name":"patron","type":"tuple"}],"name":"updatePatron","outputs":[],"stateMutability":"nonpayable","type":"function"},{"inputs":[{"internalType":"uint256","name":"talosId","type":"uint256"},{"components":[{"internalType":"int256","name":"totalSupply","type":"int256"},{"internalType":"int256","name":"priceUsdCents","type":"int256"},{"internalType":"string","name":"tokenSymbol","type":"string"}],"internalType":"struct TalosRegistry.Pulse","name":"pulse","type":"tuple"}],"name":"updatePulse","outputs":[],"stateMutability":"nonpayable","type":"function"}],"evm":{"bytecode":{"linkReferences":{},"object":"608060405234801561001057600080fd5b5060405161146f38038061146f83398101604081905261002f91610065565b60008054336001600160a01b031991821617909155600180549091166001600160a01b0392909216919091178155600255610095565b60006020828403121561007757600080fd5b81516001600160a01b038116811461008e57600080fd5b9392505050565b6113cb806100a46000396000f3fe608060405234801561001057600080fd5b50600436106100ea5760003560e01c806382afd23b1161008c578063aacd43e311610066578063aacd43e31461020d578063be37822814610220578063ed0c0d6f14610229578063f01e9a8b1461023c57600080fd5b806382afd23b146101ce5780638da5cb5b146101f157806395e3f86e1461020457600080fd5b80631d8b9ef2116100c85780631d8b9ef214610164578063280f19c11461017957806335659fb81461018c578063589a1743146101a557600080fd5b8063047b094a146100ef57806306d6e63f1461011857806309ece12d14610143575b600080fd5b6101026100fd366004610b76565b61024f565b60405161010f9190610c06565b60405180910390f35b60015461012b906001600160a01b031681565b6040516001600160a01b03909116815260200161010f565b610156610151366004610dd4565b6105f2565b60405190815260200161010f565b610177610172366004610b76565b6107b9565b005b610177610187366004610eba565b61082b565b61012c5b60405163ffffffff909116815260200161010f565b61012b6101b3366004610b76565b6004602052600090815260409020546001600160a01b031681565b6101e16101dc366004610b76565b6108ae565b604051901515815260200161010f565b60005461012b906001600160a01b031681565b61015660025481565b61017761021b366004610ee7565b6108e9565b61019061012c81565b610177610237366004610f2e565b610954565b61017761024a366004610f6a565b610a26565b610257610a72565b600082815260036020526040812054900361028557604051632fc1a59f60e11b815260040160405180910390fd5b6003600083815260200190815260200160002060405180610140016040529081600082015481526020016001820180546102be90610f8e565b80601f01602080910402602001604051908101604052809291908181526020018280546102ea90610f8e565b80156103375780601f1061030c57610100808354040283529160200191610337565b820191906000526020600020905b81548152906001019060200180831161031a57829003601f168201915b5050505050815260200160028201805461035090610f8e565b80601f016020809104026020016040519081016040528092919081815260200182805461037c90610f8e565b80156103c95780601f1061039e576101008083540402835291602001916103c9565b820191906000526020600020905b8154815290600101906020018083116103ac57829003601f168201915b505050505081526020016003820180546103e290610f8e565b80601f016020809104026020016040519081016040528092919081815260200182805461040e90610f8e565b801561045b5780601f106104305761010080835404028352916020019161045b565b820191906000526020600020905b81548152906001019060200180831161043e57829003601f168201915b505050918352505060048201546001600160a01b039081166020808401919091526040805160c081018252600586015463ffffffff80821683526401000000008204811683860152600160401b82041682840152600160601b9004841660608083019190915260068701548516608080840191909152600788015490951660a0830152828601919091528151808201835260088701548152600987015481850152600a870154818401528186015281519081018252600b860180548252600c87015493820193909352600d86018054949095019490939184019161053e90610f8e565b80601f016020809104026020016040519081016040528092919081815260200182805461056a90610f8e565b80156105b75780601f1061058c576101008083540402835291602001916105b7565b820191906000526020600020905b81548152906001019060200180831161059a57829003601f168201915b505050919092525050508152600e919091015467ffffffffffffffff81166020830152600160401b900460ff16151560409091015292915050565b60006106046080850160608601610f6a565b6001600160a01b0316336001600160a01b031614610634576040516282b42960e81b815260040160405180910390fd5b506002546000818152600360205260409020818155600181016106588b8d83611029565b5060028101610668898b83611029565b5060038101610678878983611029565b506106896080860160608701610f6a565b6004820180546001600160a01b0319166001600160a01b039290921691909117905584600582016106ba8282611128565b505083356008820155602084013560098201556040840135600a82015582600b82016106e68282611222565b5050600e8101805468ffffffffffffffffff191667ffffffffffffffff421617600160401b17905561071e6080860160608701610f6a565b600083815260046020526040902080546001600160a01b0319166001600160a01b0392909216919091179055610755826001611328565b6002556107686080860160608701610f6a565b6001600160a01b0316827f13a0f02e6e9faddb0e65b0322b5c9568b4b301b95e6fe1debb60494c911f50e18d8d6040516107a3929190611349565b60405180910390a3509998505050505050505050565b600081815260036020526040812080549091036107e957604051632fc1a59f60e11b815260040160405180910390fd5b60048101546001600160a01b03163314610815576040516282b42960e81b815260040160405180910390fd5b600e01805468ff00000000000000001916905550565b6000828152600360205260408120805490910361085b57604051632fc1a59f60e11b815260040160405180910390fd5b60048101546001600160a01b03163314610887576040516282b42960e81b815260040160405180910390fd5b813560088201908155602083013560098301556040830135600a83015582905b5050505050565b600081815260036020526040812054158015906108e357506000828152600360205260409020600e0154600160401b900460ff165b92915050565b6000828152600360205260408120805490910361091957604051632fc1a59f60e11b815260040160405180910390fd5b60048101546001600160a01b03163314610945576040516282b42960e81b815260040160405180910390fd5b81600b82016108a78282611222565b6000828152600360205260408120805490910361098457604051632fc1a59f60e11b815260040160405180910390fd5b60048101546001600160a01b031633146109b0576040516282b42960e81b815260040160405180910390fd5b81600582016109bf8282611128565b508390507f62ddba46f9a92c56f15bda47ac9c3967faccb14e76e17824d2e17275e4df64146109f16020850185611378565b610a016040860160208701611378565b6040805163ffffffff93841681529290911660208301520160405180910390a2505050565b6000546001600160a01b03163314610a50576040516282b42960e81b815260040160405180910390fd5b600180546001600160a01b0319166001600160a01b0392909216919091179055565b6040518061014001604052806000815260200160608152602001606081526020016060815260200160006001600160a01b03168152602001610b106040518060c00160405280600063ffffffff168152602001600063ffffffff168152602001600063ffffffff16815260200160006001600160a01b0316815260200160006001600160a01b0316815260200160006001600160a01b031681525090565b8152602001610b3960405180606001604052806000815260200160008152602001600081525090565b8152602001610b6260405180606001604052806000815260200160008152602001606081525090565b815260006020820181905260409091015290565b600060208284031215610b8857600080fd5b5035919050565b6000815180845260005b81811015610bb557602081850181015186830182015201610b99565b506000602082860101526020601f19601f83011685010191505092915050565b80518252602081015160208301526000604082015160606040850152610bfe6060850182610b8f565b949350505050565b602081528151602082015260006020830151610220806040850152610c2f610240850183610b8f565b91506040850151601f1980868503016060870152610c4d8483610b8f565b93506060870151915080868503016080870152610c6a8483610b8f565b935060808701519150610c8860a08701836001600160a01b03169052565b60a087810151805163ffffffff90811660c08a01526020820151811660e08a015260408201511661010089015260608101516001600160a01b039081166101208a0152608082015181166101408a015291810151909116610160880152915060c0870151805161018088015260208101516101a088015260408101516101c0880152915060e0870151915080868503016101e087015250610d298382610bd5565b925050610100850151610d4961020086018267ffffffffffffffff169052565b50610120850151801515858301525090949350505050565b60008083601f840112610d7357600080fd5b50813567ffffffffffffffff811115610d8b57600080fd5b602083019150836020828501011115610da357600080fd5b9250929050565b600060c08284031215610dbc57600080fd5b50919050565b600060608284031215610dbc57600080fd5b60008060008060008060008060006101a08a8c031215610df357600080fd5b893567ffffffffffffffff80821115610e0b57600080fd5b610e178d838e01610d61565b909b50995060208c0135915080821115610e3057600080fd5b610e3c8d838e01610d61565b909950975060408c0135915080821115610e5557600080fd5b610e618d838e01610d61565b9097509550859150610e768d60608e01610daa565b9450610e868d6101208e01610dc2565b93506101808c0135915080821115610e9d57600080fd5b50610eaa8c828d01610dc2565b9150509295985092959850929598565b60008060808385031215610ecd57600080fd5b82359150610ede8460208501610dc2565b90509250929050565b60008060408385031215610efa57600080fd5b82359150602083013567ffffffffffffffff811115610f1857600080fd5b610f2485828601610dc2565b9150509250929050565b60008060e08385031215610f4157600080fd5b82359150610ede8460208501610daa565b6001600160a01b0381168114610f6757600080fd5b50565b600060208284031215610f7c57600080fd5b8135610f8781610f52565b9392505050565b600181811c90821680610fa257607f821691505b602082108103610dbc57634e487b7160e01b600052602260045260246000fd5b634e487b7160e01b600052604160045260246000fd5b601f821115611024576000816000526020600020601f850160051c810160208610156110015750805b601f850160051c820191505b818110156110205782815560010161100d565b5050505b505050565b67ffffffffffffffff83111561104157611041610fc2565b6110558361104f8354610f8e565b83610fd8565b6000601f84116001811461108957600085156110715750838201355b600019600387901b1c1916600186901b1783556108a7565b600083815260209020601f19861690835b828110156110ba578685013582556020948501946001909201910161109a565b50868210156110d75760001960f88860031b161c19848701351681555b505060018560011b0183555050505050565b63ffffffff81168114610f6757600080fd5b600081356108e381610f52565b80546001600160a01b0319166001600160a01b0392909216919091179055565b8135611133816110e9565b63ffffffff8116905081548163ffffffff1982161783556020840135611158816110e9565b67ffffffff000000008160201b169050808367ffffffffffffffff198416171784556040850135611188816110e9565b6bffffffff00000000000000008160401b16846bffffffffffffffffffffffff198516178317178555505050506111ee6111c4606084016110fb565b82546bffffffffffffffffffffffff1660609190911b6bffffffffffffffffffffffff1916178255565b6112066111fd608084016110fb565b60018301611108565b61121e61121560a084016110fb565b60028301611108565b5050565b8135815560016020808401356001840155600283016040850135601e1986360301811261124e57600080fd5b8501803567ffffffffffffffff81111561126757600080fd5b803603848301131561127857600080fd5b61128c816112868554610f8e565b85610fd8565b6000601f8211600181146112c257600083156112aa57508382018601355b600019600385901b1c1916600184901b17855561131d565b600085815260209020601f19841690835b828110156112f2578685018901358255938801939089019088016112d3565b50848210156113115760001960f88660031b161c198885880101351681555b505060018360011b0185555b505050505050505050565b808201808211156108e357634e487b7160e01b600052601160045260246000fd5b60208152816020820152818360408301376000818301604090810191909152601f909201601f19160101919050565b60006020828403121561138a57600080fd5b8135610f87816110e956fea26469706673582212204a04b6ed06f71384098d90365bb208d48089f1b886a5b29237ad2997ae055aa364736f6c63430008180033","opcodes":"PUSH1 0x80 PUSH1 0x40 MSTORE CALLVALUE DUP1 ISZERO PUSH2 0x10 JUMPI PUSH1 0x0 DUP1 REVERT JUMPDEST POP PUSH1 0x40 MLOAD PUSH2 0x146F CODESIZE SUB DUP1 PUSH2 0x146F DUP4 CODECOPY DUP2 ADD PUSH1 0x40 DUP2 SWAP1 MSTORE PUSH2 0x2F SWAP2 PUSH2 0x65 JUMP JUMPDEST PUSH1 0x0 DUP1 SLOAD CALLER PUSH1 0x1 PUSH1 0x1 PUSH1 0xA0 SHL SUB NOT SWAP2 DUP3 AND OR SWAP1 SWAP2 SSTORE PUSH1 0x1 DUP1 SLOAD SWAP1 SWAP2 AND PUSH1 0x1 PUSH1 0x1 PUSH1 0xA0 SHL SUB SWAP3 SWAP1 SWAP3 AND SWAP2 SWAP1 SWAP2 OR DUP2 SSTORE PUSH1 0x2 SSTORE PUSH2 0x95 JUMP JUMPDEST PUSH1 0x0 PUSH1 0x20 DUP3 DUP5 SUB SLT ISZERO PUSH2 0x77 JUMPI PUSH1 0x0 DUP1 REVERT JUMPDEST DUP2 MLOAD PUSH1 0x1 PUSH1 0x1 PUSH1 0xA0 SHL SUB DUP2 AND DUP2 EQ PUSH2 0x8E JUMPI PUSH1 0x0 DUP1 REVERT JUMPDEST SWAP4 SWAP3 POP POP POP JUMP JUMPDEST PUSH2 0x13CB DUP1 PUSH2 0xA4 PUSH1 0x0 CODECOPY PUSH1 0x0 RETURN INVALID PUSH1 0x80 PUSH1 0x40 MSTORE CALLVALUE DUP1 ISZERO PUSH2 0x10 JUMPI PUSH1 0x0 DUP1 REVERT JUMPDEST POP PUSH1 0x4 CALLDATASIZE LT PUSH2 0xEA JUMPI PUSH1 0x0 CALLDATALOAD PUSH1 0xE0 SHR DUP1 PUSH4 0x82AFD23B GT PUSH2 0x8C JUMPI DUP1 PUSH4 0xAACD43E3 GT PUSH2 0x66 JUMPI DUP1 PUSH4 0xAACD43E3 EQ PUSH2 0x20D JUMPI DUP1 PUSH4 0xBE378228 EQ PUSH2 0x220 JUMPI DUP1 PUSH4 0xED0C0D6F EQ PUSH2 0x229 JUMPI DUP1 PUSH4 0xF01E9A8B EQ PUSH2 0x23C JUMPI PUSH1 0x0 DUP1 REVERT JUMPDEST DUP1 PUSH4 0x82AFD23B EQ PUSH2 0x1CE JUMPI DUP1 PUSH4 0x8DA5CB5B EQ PUSH2 0x1F1 JUMPI DUP1 PUSH4 0x95E3F86E EQ PUSH2 0x204 JUMPI PUSH1 0x0 DUP1 REVERT JUMPDEST DUP1 PUSH4 0x1D8B9EF2 GT PUSH2 0xC8 JUMPI DUP1 PUSH4 0x1D8B9EF2 EQ PUSH2 0x164 JUMPI DUP1 PUSH4 0x280F19C1 EQ PUSH2 0x179 JUMPI DUP1 PUSH4 0x35659FB8 EQ PUSH2 0x18C JUMPI DUP1 PUSH4 0x589A1743 EQ PUSH2 0x1A5 JUMPI PUSH1 0x0 DUP1 REVERT JUMPDEST DUP1 PUSH4 0x47B094A EQ PUSH2 0xEF JUMPI DUP1 PUSH4 0x6D6E63F EQ PUSH2 0x118 JUMPI DUP1 PUSH4 0x9ECE12D EQ PUSH2 0x143 JUMPI JUMPDEST PUSH1 0x0 DUP1 REVERT JUMPDEST PUSH2 0x102 PUSH2 0xFD CALLDATASIZE PUSH1 0x4 PUSH2 0xB76 JUMP JUMPDEST PUSH2 0x24F JUMP JUMPDEST PUSH1 0x40 MLOAD PUSH2 0x10F SWAP2 SWAP1 PUSH2 0xC06 JUMP JUMPDEST PUSH1 0x40 MLOAD DUP1 SWAP2 SUB SWAP1 RETURN JUMPDEST PUSH1 0x1 SLOAD PUSH2 0x12B SWAP1 PUSH1 0x1 PUSH1 0x1 PUSH1 0xA0 SHL SUB AND DUP2 JUMP JUMPDEST PUSH1 0x40 MLOAD PUSH1 0x1 PUSH1 0x1 PUSH1 0xA0 SHL SUB SWAP1 SWAP2 AND DUP2 MSTORE PUSH1 0x20 ADD PUSH2 0x10F JUMP JUMPDEST PUSH2 0x156 PUSH2 0x151 CALLDATASIZE PUSH1 0x4 PUSH2 0xDD4 JUMP JUMPDEST PUSH2 0x5F2 JUMP JUMPDEST PUSH1 0x40 MLOAD SWAP1 DUP2 MSTORE PUSH1 0x20 ADD PUSH2 0x10F JUMP JUMPDEST PUSH2 0x177 PUSH2 0x172 CALLDATASIZE PUSH1 0x4 PUSH2 0xB76 JUMP JUMPDEST PUSH2 0x7B9 JUMP JUMPDEST STOP JUMPDEST PUSH2 0x177 PUSH2 0x187 CALLDATASIZE PUSH1 0x4 PUSH2 0xEBA JUMP JUMPDEST PUSH2 0x82B JUMP JUMPDEST PUSH2 0x12C JUMPDEST PUSH1 0x40 MLOAD PUSH4 0xFFFFFFFF SWAP1 SWAP2 AND DUP2 MSTORE PUSH1 0x20 ADD PUSH2 0x10F JUMP JUMPDEST PUSH2 0x12B PUSH2 0x1B3 CALLDATASIZE PUSH1 0x4 PUSH2 0xB76 JUMP JUMPDEST PUSH1 0x4 PUSH1 0x20 MSTORE PUSH1 0x0 SWAP1 DUP2 MSTORE PUSH1 0x40 SWAP1 KECCAK256 SLOAD PUSH1 0x1 PUSH1 0x1 PUSH1 0xA0 SHL SUB AND DUP2 JUMP JUMPDEST PUSH2 0x1E1 PUSH2 0x1DC CALLDATASIZE PUSH1 0x4 PUSH2 0xB76 JUMP JUMPDEST PUSH2 0x8AE JUMP JUMPDEST PUSH1 0x40 MLOAD SWAP1 ISZERO ISZERO DUP2 MSTORE PUSH1 0x20 ADD PUSH2 0x10F JUMP JUMPDEST PUSH1 0x0 SLOAD PUSH2 0x12B SWAP1 PUSH1 0x1 PUSH1 0x1 PUSH1 0xA0 SHL SUB AND DUP2 JUMP JUMPDEST PUSH2 0x156 PUSH1 0x2 SLOAD DUP2 JUMP JUMPDEST PUSH2 0x177 PUSH2 0x21B CALLDATASIZE PUSH1 0x4 PUSH2 0xEE7 JUMP JUMPDEST PUSH2 0x8E9 JUMP JUMPDEST PUSH2 0x190 PUSH2 0x12C DUP2 JUMP JUMPDEST PUSH2 0x177 PUSH2 0x237 CALLDATASIZE PUSH1 0x4 PUSH2 0xF2E JUMP JUMPDEST PUSH2 0x954 JUMP JUMPDEST PUSH2 0x177 PUSH2 0x24A CALLDATASIZE PUSH1 0x4 PUSH2 0xF6A JUMP JUMPDEST PUSH2 0xA26 JUMP JUMPDEST PUSH2 0x257 PUSH2 0xA72 JUMP JUMPDEST PUSH1 0x0 DUP3 DUP2 MSTORE PUSH1 0x3 PUSH1 0x20 MSTORE PUSH1 0x40 DUP2 KECCAK256 SLOAD SWAP1 SUB PUSH2 0x285 JUMPI PUSH1 0x40 MLOAD PUSH4 0x2FC1A59F PUSH1 0xE1 SHL DUP2 MSTORE PUSH1 0x4 ADD PUSH1 0x40 MLOAD DUP1 SWAP2 SUB SWAP1 REVERT JUMPDEST PUSH1 0x3 PUSH1 0x0 DUP4 DUP2 MSTORE PUSH1 0x20 ADD SWAP1 DUP2 MSTORE PUSH1 0x20 ADD PUSH1 0x0 KECCAK256 PUSH1 0x40 MLOAD DUP1 PUSH2 0x140 ADD PUSH1 0x40 MSTORE SWAP1 DUP2 PUSH1 0x0 DUP3 ADD SLOAD DUP2 MSTORE PUSH1 0x20 ADD PUSH1 0x1 DUP3 ADD DUP1 SLOAD PUSH2 0x2BE SWAP1 PUSH2 0xF8E JUMP JUMPDEST DUP1 PUSH1 0x1F ADD PUSH1 0x20 DUP1 SWAP2 DIV MUL PUSH1 0x20 ADD PUSH1 0x40 MLOAD SWAP1 DUP2 ADD PUSH1 0x40 MSTORE DUP1 SWAP3 SWAP2 SWAP1 DUP2 DUP2 MSTORE PUSH1 0x20 ADD DUP3 DUP1 SLOAD PUSH2 0x2EA SWAP1 PUSH2 0xF8E JUMP JUMPDEST DUP1 ISZERO PUSH2 0x337 JUMPI DUP1 PUSH1 0x1F LT PUSH2 0x30C JUMPI PUSH2 0x100 DUP1 DUP4 SLOAD DIV MUL DUP4 MSTORE SWAP2 PUSH1 0x20 ADD SWAP2 PUSH2 0x337 JUMP JUMPDEST DUP3 ADD SWAP2 SWAP1 PUSH1 0x0 MSTORE PUSH1 0x20 PUSH1 0x0 KECCAK256 SWAP1 JUMPDEST DUP2 SLOAD DUP2 MSTORE SWAP1 PUSH1 0x1 ADD SWAP1 PUSH1 0x20 ADD DUP1 DUP4 GT PUSH2 0x31A JUMPI DUP3 SWAP1 SUB PUSH1 0x1F AND DUP3 ADD SWAP2 JUMPDEST POP POP POP POP POP DUP2 MSTORE PUSH1 0x20 ADD PUSH1 0x2 DUP3 ADD DUP1 SLOAD PUSH2 0x350 SWAP1 PUSH2 0xF8E JUMP JUMPDEST DUP1 PUSH1 0x1F ADD PUSH1 0x20 DUP1 SWAP2 DIV MUL PUSH1 0x20 ADD PUSH1 0x40 MLOAD SWAP1 DUP2 ADD PUSH1 0x40 MSTORE DUP1 SWAP3 SWAP2 SWAP1 DUP2 DUP2 MSTORE PUSH1 0x20 ADD DUP3 DUP1 SLOAD PUSH2 0x37C SWAP1 PUSH2 0xF8E JUMP JUMPDEST DUP1 ISZERO PUSH2 0x3C9 JUMPI DUP1 PUSH1 0x1F LT PUSH2 0x39E JUMPI PUSH2 0x100 DUP1 DUP4 SLOAD DIV MUL DUP4 MSTORE SWAP2 PUSH1 0x20 ADD SWAP2 PUSH2 0x3C9 JUMP JUMPDEST DUP3 ADD SWAP2 SWAP1 PUSH1 0x0 MSTORE PUSH1 0x20 PUSH1 0x0 KECCAK256 SWAP1 JUMPDEST DUP2 SLOAD DUP2 MSTORE SWAP1 PUSH1 0x1 ADD SWAP1 PUSH1 0x20 ADD DUP1 DUP4 GT PUSH2 0x3AC JUMPI DUP3 SWAP1 SUB PUSH1 0x1F AND DUP3 ADD SWAP2 JUMPDEST POP POP POP POP POP DUP2 MSTORE PUSH1 0x20 ADD PUSH1 0x3 DUP3 ADD DUP1 SLOAD PUSH2 0x3E2 SWAP1 PUSH2 0xF8E JUMP JUMPDEST DUP1 PUSH1 0x1F ADD PUSH1 0x20 DUP1 SWAP2 DIV MUL PUSH1 0x20 ADD PUSH1 0x40 MLOAD SWAP1 DUP2 ADD PUSH1 0x40 MSTORE DUP1 SWAP3 SWAP2 SWAP1 DUP2 DUP2 MSTORE PUSH1 0x20 ADD DUP3 DUP1 SLOAD PUSH2 0x40E SWAP1 PUSH2 0xF8E JUMP JUMPDEST DUP1 ISZERO PUSH2 0x45B JUMPI DUP1 PUSH1 0x1F LT PUSH2 0x430 JUMPI PUSH2 0x100 DUP1 DUP4 SLOAD DIV MUL DUP4 MSTORE SWAP2 PUSH1 0x20 ADD SWAP2 PUSH2 0x45B JUMP JUMPDEST DUP3 ADD SWAP2 SWAP1 PUSH1 0x0 MSTORE PUSH1 0x20 PUSH1 0x0 KECCAK256 SWAP1 JUMPDEST DUP2 SLOAD DUP2 MSTORE SWAP1 PUSH1 0x1 ADD SWAP1 PUSH1 0x20 ADD DUP1 DUP4 GT PUSH2 0x43E JUMPI DUP3 SWAP1 SUB PUSH1 0x1F AND DUP3 ADD SWAP2 JUMPDEST POP POP POP SWAP2 DUP4 MSTORE POP POP PUSH1 0x4 DUP3 ADD SLOAD PUSH1 0x1 PUSH1 0x1 PUSH1 0xA0 SHL SUB SWAP1 DUP2 AND PUSH1 0x20 DUP1 DUP5 ADD SWAP2 SWAP1 SWAP2 MSTORE PUSH1 0x40 DUP1 MLOAD PUSH1 0xC0 DUP2 ADD DUP3 MSTORE PUSH1 0x5 DUP7 ADD SLOAD PUSH4 0xFFFFFFFF DUP1 DUP3 AND DUP4 MSTORE PUSH5 0x100000000 DUP3 DIV DUP2 AND DUP4 DUP7 ADD MSTORE PUSH1 0x1 PUSH1 0x40 SHL DUP3 DIV AND DUP3 DUP5 ADD MSTORE PUSH1 0x1 PUSH1 0x60 SHL SWAP1 DIV DUP5 AND PUSH1 0x60 DUP1 DUP4 ADD SWAP2 SWAP1 SWAP2 MSTORE PUSH1 0x6 DUP8 ADD SLOAD DUP6 AND PUSH1 0x80 DUP1 DUP5 ADD SWAP2 SWAP1 SWAP2 MSTORE PUSH1 0x7 DUP9 ADD SLOAD SWAP1 SWAP6 AND PUSH1 0xA0 DUP4 ADD MSTORE DUP3 DUP7 ADD SWAP2 SWAP1 SWAP2 MSTORE DUP2 MLOAD DUP1 DUP3 ADD DUP4 MSTORE PUSH1 0x8 DUP8 ADD SLOAD DUP2 MSTORE PUSH1 0x9 DUP8 ADD SLOAD DUP2 DUP6 ADD MSTORE PUSH1 0xA DUP8 ADD SLOAD DUP2 DUP5 ADD MSTORE DUP2 DUP7 ADD MSTORE DUP2 MLOAD SWAP1 DUP2 ADD DUP3 MSTORE PUSH1 0xB DUP7 ADD DUP1 SLOAD DUP3 MSTORE PUSH1 0xC DUP8 ADD SLOAD SWAP4 DUP3 ADD SWAP4 SWAP1 SWAP4 MSTORE PUSH1 0xD DUP7 ADD DUP1 SLOAD SWAP5 SWAP1 SWAP6 ADD SWAP5 SWAP1 SWAP4 SWAP2 DUP5 ADD SWAP2 PUSH2 0x53E SWAP1 PUSH2 0xF8E JUMP JUMPDEST DUP1 PUSH1 0x1F ADD PUSH1 0x20 DUP1 SWAP2 DIV MUL PUSH1 0x20 ADD PUSH1 0x40 MLOAD SWAP1 DUP2 ADD PUSH1 0x40 MSTORE DUP1 SWAP3 SWAP2 SWAP1 DUP2 DUP2 MSTORE PUSH1 0x20 ADD DUP3 DUP1 SLOAD PUSH2 0x56A SWAP1 PUSH2 0xF8E JUMP JUMPDEST DUP1 ISZERO PUSH2 0x5B7 JUMPI DUP1 PUSH1 0x1F LT PUSH2 0x58C JUMPI PUSH2 0x100 DUP1 DUP4 SLOAD DIV MUL DUP4 MSTORE SWAP2 PUSH1 0x20 ADD SWAP2 PUSH2 0x5B7 JUMP JUMPDEST DUP3 ADD SWAP2 SWAP1 PUSH1 0x0 MSTORE PUSH1 0x20 PUSH1 0x0 KECCAK256 SWAP1 JUMPDEST DUP2 SLOAD DUP2 MSTORE SWAP1 PUSH1 0x1 ADD SWAP1 PUSH1 0x20 ADD DUP1 DUP4 GT PUSH2 0x59A JUMPI DUP3 SWAP1 SUB PUSH1 0x1F AND DUP3 ADD SWAP2 JUMPDEST POP POP POP SWAP2 SWAP1 SWAP3 MSTORE POP POP POP DUP2 MSTORE PUSH1 0xE SWAP2 SWAP1 SWAP2 ADD SLOAD PUSH8 0xFFFFFFFFFFFFFFFF DUP2 AND PUSH1 0x20 DUP4 ADD MSTORE PUSH1 0x1 PUSH1 0x40 SHL SWAP1 DIV PUSH1 0xFF AND ISZERO ISZERO PUSH1 0x40 SWAP1 SWAP2 ADD MSTORE SWAP3 SWAP2 POP POP JUMP JUMPDEST PUSH1 0x0 PUSH2 0x604 PUSH1 0x80 DUP6 ADD PUSH1 0x60 DUP7 ADD PUSH2 0xF6A JUMP JUMPDEST PUSH1 0x1 PUSH1 0x1 PUSH1 0xA0 SHL SUB AND CALLER PUSH1 0x1 PUSH1 0x1 PUSH1 0xA0 SHL SUB AND EQ PUSH2 0x634 JUMPI PUSH1 0x40 MLOAD PUSH3 0x82B429 PUSH1 0xE8 SHL DUP2 MSTORE PUSH1 0x4 ADD PUSH1 0x40 MLOAD DUP1 SWAP2 SUB SWAP1 REVERT JUMPDEST POP PUSH1 0x2 SLOAD PUSH1 0x0 DUP2 DUP2 MSTORE PUSH1 0x3 PUSH1 0x20 MSTORE PUSH1 0x40 SWAP1 KECCAK256 DUP2 DUP2 SSTORE PUSH1 0x1 DUP2 ADD PUSH2 0x658 DUP12 DUP14 DUP4 PUSH2 0x1029 JUMP JUMPDEST POP PUSH1 0x2 DUP2 ADD PUSH2 0x668 DUP10 DUP12 DUP4 PUSH2 0x1029 JUMP JUMPDEST POP PUSH1 0x3 DUP2 ADD PUSH2 0x678 DUP8 DUP10 DUP4 PUSH2 0x1029 JUMP JUMPDEST POP PUSH2 0x689 PUSH1 0x80 DUP7 ADD PUSH1 0x60 DUP8 ADD PUSH2 0xF6A JUMP JUMPDEST PUSH1 0x4 DUP3 ADD DUP1 SLOAD PUSH1 0x1 PUSH1 0x1 PUSH1 0xA0 SHL SUB NOT AND PUSH1 0x1 PUSH1 0x1 PUSH1 0xA0 SHL SUB SWAP3 SWAP1 SWAP3 AND SWAP2 SWAP1 SWAP2 OR SWAP1 SSTORE DUP5 PUSH1 0x5 DUP3 ADD PUSH2 0x6BA DUP3 DUP3 PUSH2 0x1128 JUMP JUMPDEST POP POP DUP4 CALLDATALOAD PUSH1 0x8 DUP3 ADD SSTORE PUSH1 0x20 DUP5 ADD CALLDATALOAD PUSH1 0x9 DUP3 ADD SSTORE PUSH1 0x40 DUP5 ADD CALLDATALOAD PUSH1 0xA DUP3 ADD SSTORE DUP3 PUSH1 0xB DUP3 ADD PUSH2 0x6E6 DUP3 DUP3 PUSH2 0x1222 JUMP JUMPDEST POP POP PUSH1 0xE DUP2 ADD DUP1 SLOAD PUSH9 0xFFFFFFFFFFFFFFFFFF NOT AND PUSH8 0xFFFFFFFFFFFFFFFF TIMESTAMP AND OR PUSH1 0x1 PUSH1 0x40 SHL OR SWAP1 SSTORE PUSH2 0x71E PUSH1 0x80 DUP7 ADD PUSH1 0x60 DUP8 ADD PUSH2 0xF6A JUMP JUMPDEST PUSH1 0x0 DUP4 DUP2 MSTORE PUSH1 0x4 PUSH1 0x20 MSTORE PUSH1 0x40 SWAP1 KECCAK256 DUP1 SLOAD PUSH1 0x1 PUSH1 0x1 PUSH1 0xA0 SHL SUB NOT AND PUSH1 0x1 PUSH1 0x1 PUSH1 0xA0 SHL SUB SWAP3 SWAP1 SWAP3 AND SWAP2 SWAP1 SWAP2 OR SWAP1 SSTORE PUSH2 0x755 DUP3 PUSH1 0x1 PUSH2 0x1328 JUMP JUMPDEST PUSH1 0x2 SSTORE PUSH2 0x768 PUSH1 0x80 DUP7 ADD PUSH1 0x60 DUP8 ADD PUSH2 0xF6A JUMP JUMPDEST PUSH1 0x1 PUSH1 0x1 PUSH1 0xA0 SHL SUB AND DUP3 PUSH32 0x13A0F02E6E9FADDB0E65B0322B5C9568B4B301B95E6FE1DEBB60494C911F50E1 DUP14 DUP14 PUSH1 0x40 MLOAD PUSH2 0x7A3 SWAP3 SWAP2 SWAP1 PUSH2 0x1349 JUMP JUMPDEST PUSH1 0x40 MLOAD DUP1 SWAP2 SUB SWAP1 LOG3 POP SWAP10 SWAP9 POP POP POP POP POP POP POP POP POP JUMP JUMPDEST PUSH1 0x0 DUP2 DUP2 MSTORE PUSH1 0x3 PUSH1 0x20 MSTORE PUSH1 0x40 DUP2 KECCAK256 DUP1 SLOAD SWAP1 SWAP2 SUB PUSH2 0x7E9 JUMPI PUSH1 0x40 MLOAD PUSH4 0x2FC1A59F PUSH1 0xE1 SHL DUP2 MSTORE PUSH1 0x4 ADD PUSH1 0x40 MLOAD DUP1 SWAP2 SUB SWAP1 REVERT JUMPDEST PUSH1 0x4 DUP2 ADD SLOAD PUSH1 0x1 PUSH1 0x1 PUSH1 0xA0 SHL SUB AND CALLER EQ PUSH2 0x815 JUMPI PUSH1 0x40 MLOAD PUSH3 0x82B429 PUSH1 0xE8 SHL DUP2 MSTORE PUSH1 0x4 ADD PUSH1 0x40 MLOAD DUP1 SWAP2 SUB SWAP1 REVERT JUMPDEST PUSH1 0xE ADD DUP1 SLOAD PUSH9 0xFF0000000000000000 NOT AND SWAP1 SSTORE POP JUMP JUMPDEST PUSH1 0x0 DUP3 DUP2 MSTORE PUSH1 0x3 PUSH1 0x20 MSTORE PUSH1 0x40 DUP2 KECCAK256 DUP1 SLOAD SWAP1 SWAP2 SUB PUSH2 0x85B JUMPI PUSH1 0x40 MLOAD PUSH4 0x2FC1A59F PUSH1 0xE1 SHL DUP2 MSTORE PUSH1 0x4 ADD PUSH1 0x40 MLOAD DUP1 SWAP2 SUB SWAP1 REVERT JUMPDEST PUSH1 0x4 DUP2 ADD SLOAD PUSH1 0x1 PUSH1 0x1 PUSH1 0xA0 SHL SUB AND CALLER EQ PUSH2 0x887 JUMPI PUSH1 0x40 MLOAD PUSH3 0x82B429 PUSH1 0xE8 SHL DUP2 MSTORE PUSH1 0x4 ADD PUSH1 0x40 MLOAD DUP1 SWAP2 SUB SWAP1 REVERT JUMPDEST DUP2 CALLDATALOAD PUSH1 0x8 DUP3 ADD SWAP1 DUP2 SSTORE PUSH1 0x20 DUP4 ADD CALLDATALOAD PUSH1 0x9 DUP4 ADD SSTORE PUSH1 0x40 DUP4 ADD CALLDATALOAD PUSH1 0xA DUP4 ADD SSTORE DUP3 SWAP1 JUMPDEST POP POP POP POP POP JUMP JUMPDEST PUSH1 0x0 DUP2 DUP2 MSTORE PUSH1 0x3 PUSH1 0x20 MSTORE PUSH1 0x40 DUP2 KECCAK256 SLOAD ISZERO DUP1 ISZERO SWAP1 PUSH2 0x8E3 JUMPI POP PUSH1 0x0 DUP3 DUP2 MSTORE PUSH1 0x3 PUSH1 0x20 MSTORE PUSH1 0x40 SWAP1 KECCAK256 PUSH1 0xE ADD SLOAD PUSH1 0x1 PUSH1 0x40 SHL SWAP1 DIV PUSH1 0xFF AND JUMPDEST SWAP3 SWAP2 POP POP JUMP JUMPDEST PUSH1 0x0 DUP3 DUP2 MSTORE PUSH1 0x3 PUSH1 0x20 MSTORE PUSH1 0x40 DUP2 KECCAK256 DUP1 SLOAD SWAP1 SWAP2 SUB PUSH2 0x919 JUMPI PUSH1 0x40 MLOAD PUSH4 0x2FC1A59F PUSH1 0xE1 SHL DUP2 MSTORE PUSH1 0x4 ADD PUSH1 0x40 MLOAD DUP1 SWAP2 SUB SWAP1 REVERT JUMPDEST PUSH1 0x4 DUP2 ADD SLOAD PUSH1 0x1 PUSH1 0x1 PUSH1 0xA0 SHL SUB AND CALLER EQ PUSH2 0x945 JUMPI PUSH1 0x40 MLOAD PUSH3 0x82B429 PUSH1 0xE8 SHL DUP2 MSTORE PUSH1 0x4 ADD PUSH1 0x40 MLOAD DUP1 SWAP2 SUB SWAP1 REVERT JUMPDEST DUP2 PUSH1 0xB DUP3 ADD PUSH2 0x8A7 DUP3 DUP3 PUSH2 0x1222 JUMP JUMPDEST PUSH1 0x0 DUP3 DUP2 MSTORE PUSH1 0x3 PUSH1 0x20 MSTORE PUSH1 0x40 DUP2 KECCAK256 DUP1 SLOAD SWAP1 SWAP2 SUB PUSH2 0x984 JUMPI PUSH1 0x40 MLOAD PUSH4 0x2FC1A59F PUSH1 0xE1 SHL DUP2 MSTORE PUSH1 0x4 ADD PUSH1 0x40 MLOAD DUP1 SWAP2 SUB SWAP1 REVERT JUMPDEST PUSH1 0x4 DUP2 ADD SLOAD PUSH1 0x1 PUSH1 0x1 PUSH1 0xA0 SHL SUB AND CALLER EQ PUSH2 0x9B0 JUMPI PUSH1 0x40 MLOAD PUSH3 0x82B429 PUSH1 0xE8 SHL DUP2 MSTORE PUSH1 0x4 ADD PUSH1 0x40 MLOAD DUP1 SWAP2 SUB SWAP1 REVERT JUMPDEST DUP2 PUSH1 0x5 DUP3 ADD PUSH2 0x9BF DUP3 DUP3 PUSH2 0x1128 JUMP JUMPDEST POP DUP4 SWAP1 POP PUSH32 0x62DDBA46F9A92C56F15BDA47AC9C3967FACCB14E76E17824D2E17275E4DF6414 PUSH2 0x9F1 PUSH1 0x20 DUP6 ADD DUP6 PUSH2 0x1378 JUMP JUMPDEST PUSH2 0xA01 PUSH1 0x40 DUP7 ADD PUSH1 0x20 DUP8 ADD PUSH2 0x1378 JUMP JUMPDEST PUSH1 0x40 DUP1 MLOAD PUSH4 0xFFFFFFFF SWAP4 DUP5 AND DUP2 MSTORE SWAP3 SWAP1 SWAP2 AND PUSH1 0x20 DUP4 ADD MSTORE ADD PUSH1 0x40 MLOAD DUP1 SWAP2 SUB SWAP1 LOG2 POP POP POP JUMP JUMPDEST PUSH1 0x0 SLOAD PUSH1 0x1 PUSH1 0x1 PUSH1 0xA0 SHL SUB AND CALLER EQ PUSH2 0xA50 JUMPI PUSH1 0x40 MLOAD PUSH3 0x82B429 PUSH1 0xE8 SHL DUP2 MSTORE PUSH1 0x4 ADD PUSH1 0x40 MLOAD DUP1 SWAP2 SUB SWAP1 REVERT JUMPDEST PUSH1 0x1 DUP1 SLOAD PUSH1 0x1 PUSH1 0x1 PUSH1 0xA0 SHL SUB NOT AND PUSH1 0x1 PUSH1 0x1 PUSH1 0xA0 SHL SUB SWAP3 SWAP1 SWAP3 AND SWAP2 SWAP1 SWAP2 OR SWAP1 SSTORE JUMP JUMPDEST PUSH1 0x40 MLOAD DUP1 PUSH2 0x140 ADD PUSH1 0x40 MSTORE DUP1 PUSH1 0x0 DUP2 MSTORE PUSH1 0x20 ADD PUSH1 0x60 DUP2 MSTORE PUSH1 0x20 ADD PUSH1 0x60 DUP2 MSTORE PUSH1 0x20 ADD PUSH1 0x60 DUP2 MSTORE PUSH1 0x20 ADD PUSH1 0x0 PUSH1 0x1 PUSH1 0x1 PUSH1 0xA0 SHL SUB AND DUP2 MSTORE PUSH1 0x20 ADD PUSH2 0xB10 PUSH1 0x40 MLOAD DUP1 PUSH1 0xC0 ADD PUSH1 0x40 MSTORE DUP1 PUSH1 0x0 PUSH4 0xFFFFFFFF AND DUP2 MSTORE PUSH1 0x20 ADD PUSH1 0x0 PUSH4 0xFFFFFFFF AND DUP2 MSTORE PUSH1 0x20 ADD PUSH1 0x0 PUSH4 0xFFFFFFFF AND DUP2 MSTORE PUSH1 0x20 ADD PUSH1 0x0 PUSH1 0x1 PUSH1 0x1 PUSH1 0xA0 SHL SUB AND DUP2 MSTORE PUSH1 0x20 ADD PUSH1 0x0 PUSH1 0x1 PUSH1 0x1 PUSH1 0xA0 SHL SUB AND DUP2 MSTORE PUSH1 0x20 ADD PUSH1 0x0 PUSH1 0x1 PUSH1 0x1 PUSH1 0xA0 SHL SUB AND DUP2 MSTORE POP SWAP1 JUMP JUMPDEST DUP2 MSTORE PUSH1 0x20 ADD PUSH2 0xB39 PUSH1 0x40 MLOAD DUP1 PUSH1 0x60 ADD PUSH1 0x40 MSTORE DUP1 PUSH1 0x0 DUP2 MSTORE PUSH1 0x20 ADD PUSH1 0x0 DUP2 MSTORE PUSH1 0x20 ADD PUSH1 0x0 DUP2 MSTORE POP SWAP1 JUMP JUMPDEST DUP2 MSTORE PUSH1 0x20 ADD PUSH2 0xB62 PUSH1 0x40 MLOAD DUP1 PUSH1 0x60 ADD PUSH1 0x40 MSTORE DUP1 PUSH1 0x0 DUP2 MSTORE PUSH1 0x20 ADD PUSH1 0x0 DUP2 MSTORE PUSH1 0x20 ADD PUSH1 0x60 DUP2 MSTORE POP SWAP1 JUMP JUMPDEST DUP2 MSTORE PUSH1 0x0 PUSH1 0x20 DUP3 ADD DUP2 SWAP1 MSTORE PUSH1 0x40 SWAP1 SWAP2 ADD MSTORE SWAP1 JUMP JUMPDEST PUSH1 0x0 PUSH1 0x20 DUP3 DUP5 SUB SLT ISZERO PUSH2 0xB88 JUMPI PUSH1 0x0 DUP1 REVERT JUMPDEST POP CALLDATALOAD SWAP2 SWAP1 POP JUMP JUMPDEST PUSH1 0x0 DUP2 MLOAD DUP1 DUP5 MSTORE PUSH1 0x0 JUMPDEST DUP2 DUP2 LT ISZERO PUSH2 0xBB5 JUMPI PUSH1 0x20 DUP2 DUP6 ADD DUP2 ADD MLOAD DUP7 DUP4 ADD DUP3 ADD MSTORE ADD PUSH2 0xB99 JUMP JUMPDEST POP PUSH1 0x0 PUSH1 0x20 DUP3 DUP7 ADD ADD MSTORE PUSH1 0x20 PUSH1 0x1F NOT PUSH1 0x1F DUP4 ADD AND DUP6 ADD ADD SWAP2 POP POP SWAP3 SWAP2 POP POP JUMP JUMPDEST DUP1 MLOAD DUP3 MSTORE PUSH1 0x20 DUP2 ADD MLOAD PUSH1 0x20 DUP4 ADD MSTORE PUSH1 0x0 PUSH1 0x40 DUP3 ADD MLOAD PUSH1 0x60 PUSH1 0x40 DUP6 ADD MSTORE PUSH2 0xBFE PUSH1 0x60 DUP6 ADD DUP3 PUSH2 0xB8F JUMP JUMPDEST SWAP5 SWAP4 POP POP POP POP JUMP JUMPDEST PUSH1 0x20 DUP2 MSTORE DUP2 MLOAD PUSH1 0x20 DUP3 ADD MSTORE PUSH1 0x0 PUSH1 0x20 DUP4 ADD MLOAD PUSH2 0x220 DUP1 PUSH1 0x40 DUP6 ADD MSTORE PUSH2 0xC2F PUSH2 0x240 DUP6 ADD DUP4 PUSH2 0xB8F JUMP JUMPDEST SWAP2 POP PUSH1 0x40 DUP6 ADD MLOAD PUSH1 0x1F NOT DUP1 DUP7 DUP6 SUB ADD PUSH1 0x60 DUP8 ADD MSTORE PUSH2 0xC4D DUP5 DUP4 PUSH2 0xB8F JUMP JUMPDEST SWAP4 POP PUSH1 0x60 DUP8 ADD MLOAD SWAP2 POP DUP1 DUP7 DUP6 SUB ADD PUSH1 0x80 DUP8 ADD MSTORE PUSH2 0xC6A DUP5 DUP4 PUSH2 0xB8F JUMP JUMPDEST SWAP4 POP PUSH1 0x80 DUP8 ADD MLOAD SWAP2 POP PUSH2 0xC88 PUSH1 0xA0 DUP8 ADD DUP4 PUSH1 0x1 PUSH1 0x1 PUSH1 0xA0 SHL SUB AND SWAP1 MSTORE JUMP JUMPDEST PUSH1 0xA0 DUP8 DUP2 ADD MLOAD DUP1 MLOAD PUSH4 0xFFFFFFFF SWAP1 DUP2 AND PUSH1 0xC0 DUP11 ADD MSTORE PUSH1 0x20 DUP3 ADD MLOAD DUP2 AND PUSH1 0xE0 DUP11 ADD MSTORE PUSH1 0x40 DUP3 ADD MLOAD AND PUSH2 0x100 DUP10 ADD MSTORE PUSH1 0x60 DUP2 ADD MLOAD PUSH1 0x1 PUSH1 0x1 PUSH1 0xA0 SHL SUB SWAP1 DUP2 AND PUSH2 0x120 DUP11 ADD MSTORE PUSH1 0x80 DUP3 ADD MLOAD DUP2 AND PUSH2 0x140 DUP11 ADD MSTORE SWAP2 DUP2 ADD MLOAD SWAP1 SWAP2 AND PUSH2 0x160 DUP9 ADD MSTORE SWAP2 POP PUSH1 0xC0 DUP8 ADD MLOAD DUP1 MLOAD PUSH2 0x180 DUP9 ADD MSTORE PUSH1 0x20 DUP2 ADD MLOAD PUSH2 0x1A0 DUP9 ADD MSTORE PUSH1 0x40 DUP2 ADD MLOAD PUSH2 0x1C0 DUP9 ADD MSTORE SWAP2 POP PUSH1 0xE0 DUP8 ADD MLOAD SWAP2 POP DUP1 DUP7 DUP6 SUB ADD PUSH2 0x1E0 DUP8 ADD MSTORE POP PUSH2 0xD29 DUP4 DUP3 PUSH2 0xBD5 JUMP JUMPDEST SWAP3 POP POP PUSH2 0x100 DUP6 ADD MLOAD PUSH2 0xD49 PUSH2 0x200 DUP7 ADD DUP3 PUSH8 0xFFFFFFFFFFFFFFFF AND SWAP1 MSTORE JUMP JUMPDEST POP PUSH2 0x120 DUP6 ADD MLOAD DUP1 ISZERO ISZERO DUP6 DUP4 ADD MSTORE POP SWAP1 SWAP5 SWAP4 POP POP POP POP JUMP JUMPDEST PUSH1 0x0 DUP1 DUP4 PUSH1 0x1F DUP5 ADD SLT PUSH2 0xD73 JUMPI PUSH1 0x0 DUP1 REVERT JUMPDEST POP DUP2 CALLDATALOAD PUSH8 0xFFFFFFFFFFFFFFFF DUP2 GT ISZERO PUSH2 0xD8B JUMPI PUSH1 0x0 DUP1 REVERT JUMPDEST PUSH1 0x20 DUP4 ADD SWAP2 POP DUP4 PUSH1 0x20 DUP3 DUP6 ADD ADD GT ISZERO PUSH2 0xDA3 JUMPI PUSH1 0x0 DUP1 REVERT JUMPDEST SWAP3 POP SWAP3 SWAP1 POP JUMP JUMPDEST PUSH1 0x0 PUSH1 0xC0 DUP3 DUP5 SUB SLT ISZERO PUSH2 0xDBC JUMPI PUSH1 0x0 DUP1 REVERT JUMPDEST POP SWAP2 SWAP1 POP JUMP JUMPDEST PUSH1 0x0 PUSH1 0x60 DUP3 DUP5 SUB SLT ISZERO PUSH2 0xDBC JUMPI PUSH1 0x0 DUP1 REVERT JUMPDEST PUSH1 0x0 DUP1 PUSH1 0x0 DUP1 PUSH1 0x0 DUP1 PUSH1 0x0 DUP1 PUSH1 0x0 PUSH2 0x1A0 DUP11 DUP13 SUB SLT ISZERO PUSH2 0xDF3 JUMPI PUSH1 0x0 DUP1 REVERT JUMPDEST DUP10 CALLDATALOAD PUSH8 0xFFFFFFFFFFFFFFFF DUP1 DUP3 GT ISZERO PUSH2 0xE0B JUMPI PUSH1 0x0 DUP1 REVERT JUMPDEST PUSH2 0xE17 DUP14 DUP4 DUP15 ADD PUSH2 0xD61 JUMP JUMPDEST SWAP1 SWAP12 POP SWAP10 POP PUSH1 0x20 DUP13 ADD CALLDATALOAD SWAP2 POP DUP1 DUP3 GT ISZERO PUSH2 0xE30 JUMPI PUSH1 0x0 DUP1 REVERT JUMPDEST PUSH2 0xE3C DUP14 DUP4 DUP15 ADD PUSH2 0xD61 JUMP JUMPDEST SWAP1 SWAP10 POP SWAP8 POP PUSH1 0x40 DUP13 ADD CALLDATALOAD SWAP2 POP DUP1 DUP3 GT ISZERO PUSH2 0xE55 JUMPI PUSH1 0x0 DUP1 REVERT JUMPDEST PUSH2 0xE61 DUP14 DUP4 DUP15 ADD PUSH2 0xD61 JUMP JUMPDEST SWAP1 SWAP8 POP SWAP6 POP DUP6 SWAP2 POP PUSH2 0xE76 DUP14 PUSH1 0x60 DUP15 ADD PUSH2 0xDAA JUMP JUMPDEST SWAP5 POP PUSH2 0xE86 DUP14 PUSH2 0x120 DUP15 ADD PUSH2 0xDC2 JUMP JUMPDEST SWAP4 POP PUSH2 0x180 DUP13 ADD CALLDATALOAD SWAP2 POP DUP1 DUP3 GT ISZERO PUSH2 0xE9D JUMPI PUSH1 0x0 DUP1 REVERT JUMPDEST POP PUSH2 0xEAA DUP13 DUP3 DUP14 ADD PUSH2 0xDC2 JUMP JUMPDEST SWAP2 POP POP SWAP3 SWAP6 SWAP9 POP SWAP3 SWAP6 SWAP9 POP SWAP3 SWAP6 SWAP9 JUMP JUMPDEST PUSH1 0x0 DUP1 PUSH1 0x80 DUP4 DUP6 SUB SLT ISZERO PUSH2 0xECD JUMPI PUSH1 0x0 DUP1 REVERT JUMPDEST DUP3 CALLDATALOAD SWAP2 POP PUSH2 0xEDE DUP5 PUSH1 0x20 DUP6 ADD PUSH2 0xDC2 JUMP JUMPDEST SWAP1 POP SWAP3 POP SWAP3 SWAP1 POP JUMP JUMPDEST PUSH1 0x0 DUP1 PUSH1 0x40 DUP4 DUP6 SUB SLT ISZERO PUSH2 0xEFA JUMPI PUSH1 0x0 DUP1 REVERT JUMPDEST DUP3 CALLDATALOAD SWAP2 POP PUSH1 0x20 DUP4 ADD CALLDATALOAD PUSH8 0xFFFFFFFFFFFFFFFF DUP2 GT ISZERO PUSH2 0xF18 JUMPI PUSH1 0x0 DUP1 REVERT JUMPDEST PUSH2 0xF24 DUP6 DUP3 DUP7 ADD PUSH2 0xDC2 JUMP JUMPDEST SWAP2 POP POP SWAP3 POP SWAP3 SWAP1 POP JUMP JUMPDEST PUSH1 0x0 DUP1 PUSH1 0xE0 DUP4 DUP6 SUB SLT ISZERO PUSH2 0xF41 JUMPI PUSH1 0x0 DUP1 REVERT JUMPDEST DUP3 CALLDATALOAD SWAP2 POP PUSH2 0xEDE DUP5 PUSH1 0x20 DUP6 ADD PUSH2 0xDAA JUMP JUMPDEST PUSH1 0x1 PUSH1 0x1 PUSH1 0xA0 SHL SUB DUP2 AND DUP2 EQ PUSH2 0xF67 JUMPI PUSH1 0x0 DUP1 REVERT JUMPDEST POP JUMP JUMPDEST PUSH1 0x0 PUSH1 0x20 DUP3 DUP5 SUB SLT ISZERO PUSH2 0xF7C JUMPI PUSH1 0x0 DUP1 REVERT JUMPDEST DUP2 CALLDATALOAD PUSH2 0xF87 DUP2 PUSH2 0xF52 JUMP JUMPDEST SWAP4 SWAP3 POP POP POP JUMP JUMPDEST PUSH1 0x1 DUP2 DUP2 SHR SWAP1 DUP3 AND DUP1 PUSH2 0xFA2 JUMPI PUSH1 0x7F DUP3 AND SWAP2 POP JUMPDEST PUSH1 0x20 DUP3 LT DUP2 SUB PUSH2 0xDBC JUMPI PUSH4 0x4E487B71 PUSH1 0xE0 SHL PUSH1 0x0 MSTORE PUSH1 0x22 PUSH1 0x4 MSTORE PUSH1 0x24 PUSH1 0x0 REVERT JUMPDEST PUSH4 0x4E487B71 PUSH1 0xE0 SHL PUSH1 0x0 MSTORE PUSH1 0x41 PUSH1 0x4 MSTORE PUSH1 0x24 PUSH1 0x0 REVERT JUMPDEST PUSH1 0x1F DUP3 GT ISZERO PUSH2 0x1024 JUMPI PUSH1 0x0 DUP2 PUSH1 0x0 MSTORE PUSH1 0x20 PUSH1 0x0 KECCAK256 PUSH1 0x1F DUP6 ADD PUSH1 0x5 SHR DUP2 ADD PUSH1 0x20 DUP7 LT ISZERO PUSH2 0x1001 JUMPI POP DUP1 JUMPDEST PUSH1 0x1F DUP6 ADD PUSH1 0x5 SHR DUP3 ADD SWAP2 POP JUMPDEST DUP2 DUP2 LT ISZERO PUSH2 0x1020 JUMPI DUP3 DUP2 SSTORE PUSH1 0x1 ADD PUSH2 0x100D JUMP JUMPDEST POP POP POP JUMPDEST POP POP POP JUMP JUMPDEST PUSH8 0xFFFFFFFFFFFFFFFF DUP4 GT ISZERO PUSH2 0x1041 JUMPI PUSH2 0x1041 PUSH2 0xFC2 JUMP JUMPDEST PUSH2 0x1055 DUP4 PUSH2 0x104F DUP4 SLOAD PUSH2 0xF8E JUMP JUMPDEST DUP4 PUSH2 0xFD8 JUMP JUMPDEST PUSH1 0x0 PUSH1 0x1F DUP5 GT PUSH1 0x1 DUP2 EQ PUSH2 0x1089 JUMPI PUSH1 0x0 DUP6 ISZERO PUSH2 0x1071 JUMPI POP DUP4 DUP3 ADD CALLDATALOAD JUMPDEST PUSH1 0x0 NOT PUSH1 0x3 DUP8 SWAP1 SHL SHR NOT AND PUSH1 0x1 DUP7 SWAP1 SHL OR DUP4 SSTORE PUSH2 0x8A7 JUMP JUMPDEST PUSH1 0x0 DUP4 DUP2 MSTORE PUSH1 0x20 SWAP1 KECCAK256 PUSH1 0x1F NOT DUP7 AND SWAP1 DUP4 JUMPDEST DUP3 DUP2 LT ISZERO PUSH2 0x10BA JUMPI DUP7 DUP6 ADD CALLDATALOAD DUP3 SSTORE PUSH1 0x20 SWAP5 DUP6 ADD SWAP5 PUSH1 0x1 SWAP1 SWAP3 ADD SWAP2 ADD PUSH2 0x109A JUMP JUMPDEST POP DUP7 DUP3 LT ISZERO PUSH2 0x10D7 JUMPI PUSH1 0x0 NOT PUSH1 0xF8 DUP9 PUSH1 0x3 SHL AND SHR NOT DUP5 DUP8 ADD CALLDATALOAD AND DUP2 SSTORE JUMPDEST POP POP PUSH1 0x1 DUP6 PUSH1 0x1 SHL ADD DUP4 SSTORE POP POP POP POP POP JUMP JUMPDEST PUSH4 0xFFFFFFFF DUP2 AND DUP2 EQ PUSH2 0xF67 JUMPI PUSH1 0x0 DUP1 REVERT JUMPDEST PUSH1 0x0 DUP2 CALLDATALOAD PUSH2 0x8E3 DUP2 PUSH2 0xF52 JUMP JUMPDEST DUP1 SLOAD PUSH1 0x1 PUSH1 0x1 PUSH1 0xA0 SHL SUB NOT AND PUSH1 0x1 PUSH1 0x1 PUSH1 0xA0 SHL SUB SWAP3 SWAP1 SWAP3 AND SWAP2 SWAP1 SWAP2 OR SWAP1 SSTORE JUMP JUMPDEST DUP2 CALLDATALOAD PUSH2 0x1133 DUP2 PUSH2 0x10E9 JUMP JUMPDEST PUSH4 0xFFFFFFFF DUP2 AND SWAP1 POP DUP2 SLOAD DUP2 PUSH4 0xFFFFFFFF NOT DUP3 AND OR DUP4 SSTORE PUSH1 0x20 DUP5 ADD CALLDATALOAD PUSH2 0x1158 DUP2 PUSH2 0x10E9 JUMP JUMPDEST PUSH8 0xFFFFFFFF00000000 DUP2 PUSH1 0x20 SHL AND SWAP1 POP DUP1 DUP4 PUSH8 0xFFFFFFFFFFFFFFFF NOT DUP5 AND OR OR DUP5 SSTORE PUSH1 0x40 DUP6 ADD CALLDATALOAD PUSH2 0x1188 DUP2 PUSH2 0x10E9 JUMP JUMPDEST PUSH12 0xFFFFFFFF0000000000000000 DUP2 PUSH1 0x40 SHL AND DUP5 PUSH12 0xFFFFFFFFFFFFFFFFFFFFFFFF NOT DUP6 AND OR DUP4 OR OR DUP6 SSTORE POP POP POP POP PUSH2 0x11EE PUSH2 0x11C4 PUSH1 0x60 DUP5 ADD PUSH2 0x10FB JUMP JUMPDEST DUP3 SLOAD PUSH12 0xFFFFFFFFFFFFFFFFFFFFFFFF AND PUSH1 0x60 SWAP2 SWAP1 SWAP2 SHL PUSH12 0xFFFFFFFFFFFFFFFFFFFFFFFF NOT AND OR DUP3 SSTORE JUMP JUMPDEST PUSH2 0x1206 PUSH2 0x11FD PUSH1 0x80 DUP5 ADD PUSH2 0x10FB JUMP JUMPDEST PUSH1 0x1 DUP4 ADD PUSH2 0x1108 JUMP JUMPDEST PUSH2 0x121E PUSH2 0x1215 PUSH1 0xA0 DUP5 ADD PUSH2 0x10FB JUMP JUMPDEST PUSH1 0x2 DUP4 ADD PUSH2 0x1108 JUMP JUMPDEST POP POP JUMP JUMPDEST DUP2 CALLDATALOAD DUP2 SSTORE PUSH1 0x1 PUSH1 0x20 DUP1 DUP5 ADD CALLDATALOAD PUSH1 0x1 DUP5 ADD SSTORE PUSH1 0x2 DUP4 ADD PUSH1 0x40 DUP6 ADD CALLDATALOAD PUSH1 0x1E NOT DUP7 CALLDATASIZE SUB ADD DUP2 SLT PUSH2 0x124E JUMPI PUSH1 0x0 DUP1 REVERT JUMPDEST DUP6 ADD DUP1 CALLDATALOAD PUSH8 0xFFFFFFFFFFFFFFFF DUP2 GT ISZERO PUSH2 0x1267 JUMPI PUSH1 0x0 DUP1 REVERT JUMPDEST DUP1 CALLDATASIZE SUB DUP5 DUP4 ADD SGT ISZERO PUSH2 0x1278 JUMPI PUSH1 0x0 DUP1 REVERT JUMPDEST PUSH2 0x128C DUP2 PUSH2 0x1286 DUP6 SLOAD PUSH2 0xF8E JUMP JUMPDEST DUP6 PUSH2 0xFD8 JUMP JUMPDEST PUSH1 0x0 PUSH1 0x1F DUP3 GT PUSH1 0x1 DUP2 EQ PUSH2 0x12C2 JUMPI PUSH1 0x0 DUP4 ISZERO PUSH2 0x12AA JUMPI POP DUP4 DUP3 ADD DUP7 ADD CALLDATALOAD JUMPDEST PUSH1 0x0 NOT PUSH1 0x3 DUP6 SWAP1 SHL SHR NOT AND PUSH1 0x1 DUP5 SWAP1 SHL OR DUP6 SSTORE PUSH2 0x131D JUMP JUMPDEST PUSH1 0x0 DUP6 DUP2 MSTORE PUSH1 0x20 SWAP1 KECCAK256 PUSH1 0x1F NOT DUP5 AND SWAP1 DUP4 JUMPDEST DUP3 DUP2 LT ISZERO PUSH2 0x12F2 JUMPI DUP7 DUP6 ADD DUP10 ADD CALLDATALOAD DUP3 SSTORE SWAP4 DUP9 ADD SWAP4 SWAP1 DUP10 ADD SWAP1 DUP9 ADD PUSH2 0x12D3 JUMP JUMPDEST POP DUP5 DUP3 LT ISZERO PUSH2 0x1311 JUMPI PUSH1 0x0 NOT PUSH1 0xF8 DUP7 PUSH1 0x3 SHL AND SHR NOT DUP9 DUP6 DUP9 ADD ADD CALLDATALOAD AND DUP2 SSTORE JUMPDEST POP POP PUSH1 0x1 DUP4 PUSH1 0x1 SHL ADD DUP6 SSTORE JUMPDEST POP POP POP POP POP POP POP POP POP JUMP JUMPDEST DUP1 DUP3 ADD DUP1 DUP3 GT ISZERO PUSH2 0x8E3 JUMPI PUSH4 0x4E487B71 PUSH1 0xE0 SHL PUSH1 0x0 MSTORE PUSH1 0x11 PUSH1 0x4 MSTORE PUSH1 0x24 PUSH1 0x0 REVERT JUMPDEST PUSH1 0x20 DUP2 MSTORE DUP2 PUSH1 0x20 DUP3 ADD MSTORE DUP2 DUP4 PUSH1 0x40 DUP4 ADD CALLDATACOPY PUSH1 0x0 DUP2 DUP4 ADD PUSH1 0x40 SWAP1 DUP2 ADD SWAP2 SWAP1 SWAP2 MSTORE PUSH1 0x1F SWAP1 SWAP3 ADD PUSH1 0x1F NOT AND ADD ADD SWAP2 SWAP1 POP JUMP JUMPDEST PUSH1 0x0 PUSH1 0x20 DUP3 DUP5 SUB SLT ISZERO PUSH2 0x138A JUMPI PUSH1 0x0 DUP1 REVERT JUMPDEST DUP2 CALLDATALOAD PUSH2 0xF87 DUP2 PUSH2 0x10E9 JUMP INVALID LOG2 PUSH5 0x6970667358 0x22 SLT KECCAK256 BLOBBASEFEE DIV 0xB6 0xED MOD 0xF7 SGT DUP5 MULMOD DUP14 SWAP1 CALLDATASIZE JUMPDEST 0xB2 ADDMOD 0xD4 DUP1 DUP10 CALL 0xB8 DUP7 0xA5 0xB2 SWAP3 CALLDATACOPY 0xAD 0x29 SWAP8 0xAE SDIV GAS LOG3 PUSH5 0x736F6C6343 STOP ADDMOD XOR STOP CALLER "},"methodIdentifiers":{"PROTOCOL_FEE_BPS()":"be378228","createTalos(string,string,string,(uint32,uint32,uint32,address,address,address),(int256,int256,int256),(int256,int256,string))":"09ece12d","creatorOf(uint256)":"589a1743","deactivateTalos(uint256)":"1d8b9ef2","getTalos(uint256)":"047b094a","isActive(uint256)":"82afd23b","nextTalosId()":"95e3f86e","owner()":"8da5cb5b","protocolFeeBps()":"35659fb8","protocolWallet()":"06d6e63f","setProtocolWallet(address)":"f01e9a8b","updateKernel(uint256,(int256,int256,int256))":"280f19c1","updatePatron(uint256,(uint32,uint32,uint32,address,address,address))":"ed0c0d6f","updatePulse(uint256,(int256,int256,string))":"aacd43e3"}}}}}