{"src/TalosRegistry.sol":{"TalosRegistry":{"abi":[{"inputs":[{"internalType":"address","name":"protocolWallet_","type":"address"}],"stateMutability":"nonpayable","type":"constructor"},{"inputs":[],"name":"InvalidPulse","type":"error"},{"inputs":[],"name":"InvalidShares","type":"error"},{"inputs":[{"internalType":"address","name":"owner","type":"address"}],"name":"OwnableInvalidOwner","type":"error"},{"inputs":[{"internalType":"address","name":"account","type":"address"}],"name":"OwnableUnauthorizedAccount","type":"error"},{"inputs":[],"name":"StringTooLong","type":"error"},{"inputs":[],"name":"TalosNotFound","type":"error"},{"inputs":[],"name":"Unauthorized","type":"error"},{"inputs":[],"name":"ZeroAddress","type":"error"},{"anonymous":false,"inputs":[{"indexed":true,"internalType":"address","name":"previousOwner","type":"address"},{"indexed":true,"internalType":"address","name":"newOwner","type":"address"}],"name":"OwnershipTransferStarted","type":"event"},{"anonymous":false,"inputs":[{"indexed":true,"internalType":"address","name":"previousOwner","type":"address"},{"indexed":true,"internalType":"address","name":"newOwner","type":"address"}],"name":"OwnershipTransferred","type":"event"},{"anonymous":false,"inputs":[{"indexed":true,"internalType":"uint256","name":"talosId","type":"uint256"},{"indexed":false,"internalType":"uint32","name":"creatorShare","type":"uint32"},{"indexed":false,"internalType":"uint32","name":"investorShare","type":"uint32"},{"indexed":false,"internalType":"uint32","name":"treasuryShare","type":"uint32"}],"name":"PatronUpdated","type":"event"},{"anonymous":false,"inputs":[{"indexed":true,"internalType":"address","name":"protocolWallet","type":"address"}],"name":"ProtocolWalletUpdated","type":"event"},{"anonymous":false,"inputs":[{"indexed":true,"internalType":"uint256","name":"talosId","type":"uint256"},{"indexed":true,"internalType":"address","name":"creator","type":"address"},{"indexed":false,"internalType":"string","name":"name","type":"string"}],"name":"TalosCreated","type":"event"},{"inputs":[],"name":"PROTOCOL_FEE_BPS","outputs":[{"internalType":"uint32","name":"","type":"uint32"}],"stateMutability":"view","type":"function"},{"inputs":[],"name":"acceptOwnership","outputs":[],"stateMutability":"nonpayable","type":"function"},{"inputs":[{"internalType":"string","name":"name","type":"string"},{"internalType":"string","name":"category","type":"string"},{"internalType":"string","name":"description","type":"string"},{"components":[{"internalType":"uint32","name":"creatorShare","type":"uint32"},{"internalType":"uint32","name":"investorShare","type":"uint32"},{"internalType":"uint32","name":"treasuryShare","type":"uint32"},{"internalType":"address","name":"creatorAddr","type":"address"},{"internalType":"address","name":"investorAddr","type":"address"},{"internalType":"address","name":"treasuryAddr","type":"address"}],"internalType":"struct TalosRegistry.Patron","name":"patron","type":"tuple"},{"components":[{"internalType":"uint256","name":"approvalThreshold","type":"uint256"},{"internalType":"uint256","name":"gtmBudget","type":"uint256"},{"internalType":"uint256","name":"minPatronPulse","type":"uint256"}],"internalType":"struct TalosRegistry.Kernel","name":"kernel","type":"tuple"},{"components":[{"internalType":"uint256","name":"totalSupply","type":"uint256"},{"internalType":"uint256","name":"priceUsdCents","type":"uint256"},{"internalType":"string","name":"tokenSymbol","type":"string"}],"internalType":"struct TalosRegistry.Pulse","name":"pulse","type":"tuple"}],"name":"createTalos","outputs":[{"internalType":"uint256","name":"talosId","type":"uint256"}],"stateMutability":"nonpayable","type":"function"},{"inputs":[{"internalType":"uint256","name":"","type":"uint256"}],"name":"creatorOf","outputs":[{"internalType":"address","name":"","type":"address"}],"stateMutability":"view","type":"function"},{"inputs":[{"internalType":"uint256","name":"talosId","type":"uint256"}],"name":"deactivateTalos","outputs":[],"stateMutability":"nonpayable","type":"function"},{"inputs":[{"internalType":"uint256","name":"talosId","type":"uint256"}],"name":"getTalos","outputs":[{"components":[{"internalType":"uint256","name":"id","type":"uint256"},{"internalType":"string","name":"name","type":"string"},{"internalType":"string","name":"category","type":"string"},{"internalType":"string","name":"description","type":"string"},{"internalType":"address","name":"creator","type":"address"},{"components":[{"internalType":"uint32","name":"creatorShare","type":"uint32"},{"internalType":"uint32","name":"investorShare","type":"uint32"},{"internalType":"uint32","name":"treasuryShare","type":"uint32"},{"internalType":"address","name":"creatorAddr","type":"address"},{"internalType":"address","name":"investorAddr","type":"address"},{"internalType":"address","name":"treasuryAddr","type":"address"}],"internalType":"struct TalosRegistry.Patron","name":"patron","type":"tuple"},{"components":[{"internalType":"uint256","name":"approvalThreshold","type":"uint256"},{"internalType":"uint256","name":"gtmBudget","type":"uint256"},{"internalType":"uint256","name":"minPatronPulse","type":"uint256"}],"internalType":"struct TalosRegistry.Kernel","name":"kernel","type":"tuple"},{"components":[{"internalType":"uint256","name":"totalSupply","type":"uint256"},{"internalType":"uint256","name":"priceUsdCents","type":"uint256"},{"internalType":"string","name":"tokenSymbol","type":"string"}],"internalType":"struct TalosRegistry.Pulse","name":"pulse","type":"tuple"},{"internalType":"uint64","name":"createdAt","type":"uint64"},{"internalType":"bool","name":"active","type":"bool"}],"internalType":"struct TalosRegistry.Talos","name":"","type":"tuple"}],"stateMutability":"view","type":"function"},{"inputs":[{"internalType":"uint256","name":"talosId","type":"uint256"}],"name":"isActive","outputs":[{"internalType":"bool","name":"","type":"bool"}],"stateMutability":"view","type":"function"},{"inputs":[],"name":"nextTalosId","outputs":[{"internalType":"uint256","name":"","type":"uint256"}],"stateMutability":"view","type":"function"},{"inputs":[],"name":"owner","outputs":[{"internalType":"address","name":"","type":"address"}],"stateMutability":"view","type":"function"},{"inputs":[],"name":"pendingOwner","outputs":[{"internalType":"address","name":"","type":"address"}],"stateMutability":"view","type":"function"},{"inputs":[],"name":"protocolFeeBps","outputs":[{"internalType":"uint32","name":"","type":"uint32"}],"stateMutability":"pure","type":"function"},{"inputs":[],"name":"protocolWallet","outputs":[{"internalType":"address","name":"","type":"address"}],"stateMutability":"view","type":"function"},{"inputs":[],"name":"renounceOwnership","outputs":[],"stateMutability":"nonpayable","type":"function"},{"inputs":[{"internalType":"address","name":"protocolWallet_","type":"address"}],"name":"setProtocolWallet","outputs":[],"stateMutability":"nonpayable","type":"function"},{"inputs":[{"internalType":"address","name":"newOwner","type":"address"}],"name":"transferOwnership","outputs":[],"stateMutability":"nonpayable","type":"function"},{"inputs":[{"internalType":"uint256","name":"talosId","type":"uint256"},{"components":[{"internalType":"uint256","name":"approvalThreshold","type":"uint256"},{"internalType":"uint256","name":"gtmBudget","type":"uint256"},{"internalType":"uint256","name":"minPatronPulse","type":"uint256"}],"internalType":"struct TalosRegistry.Kernel","name":"kernel","type":"tuple"}],"name":"updateKernel","outputs":[],"stateMutability":"nonpayable","type":"function"},{"inputs":[{"internalType":"uint256","name":"talosId","type":"uint256"},{"components":[{"internalType":"uint32","name":"creatorShare","type":"uint32"},{"internalType":"uint32","name":"investorShare","type":"uint32"},{"internalType":"uint32","name":"treasuryShare","type":"uint32"},{"internalType":"address","name":"creatorAddr","type":"address"},{"internalType":"address","name":"investorAddr","type":"address"},{"internalType":"address","name":"treasuryAddr","type":"address"}],"internalType":"struct TalosRegistry.Patron","name":"patron","type":"tuple"}],"name":"updatePatron","outputs":[],"stateMutability":"nonpayable","type":"function"},{"inputs":[{"internalType":"uint256","name":"talosId","type":"uint256"},{"components":[{"internalType":"uint256","name":"totalSupply","type":"uint256"},{"internalType":"uint256","name":"priceUsdCents","type":"uint256"},{"internalType":"string","name":"tokenSymbol","type":"string"}],"internalType":"struct TalosRegistry.Pulse","name":"pulse","type":"tuple"}],"name":"updatePulse","outputs":[],"stateMutability":"nonpayable","type":"function"}],"evm":{"bytecode":{"linkReferences":{},"object":"60806040523480156200001157600080fd5b506040516200196938038062001969833981016040819052620000349162000128565b33806200005b57604051631e4fbdf760e01b81526000600482015260240160405180910390fd5b6200006681620000ba565b506001600160a01b0381166200008f5760405163d92e233d60e01b815260040160405180910390fd5b600280546001600160a01b0319166001600160a01b039290921691909117905560016003556200015a565b600180546001600160a01b0319169055620000d581620000d8565b50565b600080546001600160a01b038381166001600160a01b0319831681178455604051919092169283917f8be0079c531659141344cd1fd0a4f28419497f9722a3daafe3b4186f6b6457e09190a35050565b6000602082840312156200013b57600080fd5b81516001600160a01b03811681146200015357600080fd5b9392505050565b6117ff806200016a6000396000f3fe608060405234801561001057600080fd5b50600436106101165760003560e01c80638da5cb5b116100a2578063e30c397811610071578063e30c397814610250578063e556887a14610261578063ed0c0d6f14610274578063f01e9a8b14610287578063f2fde38b1461029a57600080fd5b80638da5cb5b1461020c57806395e3f86e1461021d578063be37822814610234578063cbdb314b1461023d57600080fd5b806335659fb8116100e957806335659fb814610197578063589a1743146101b0578063715018a6146101d957806379ba5097146101e157806382afd23b146101e957600080fd5b8063047b094a1461011b57806306d6e63f146101445780631d8b9ef21461016f5780632132a99b14610184575b600080fd5b61012e610129366004610f66565b6102ad565b60405161013b9190610ff6565b60405180910390f35b600254610157906001600160a01b031681565b6040516001600160a01b03909116815260200161013b565b61018261017d366004610f66565b610650565b005b610182610192366004611169565b6106c2565b61012c5b60405163ffffffff909116815260200161013b565b6101576101be366004610f66565b6005602052600090815260409020546001600160a01b031681565b61018261076d565b610182610781565b6101fc6101f7366004610f66565b6107ca565b604051901515815260200161013b565b6000546001600160a01b0316610157565b61022660035481565b60405190815260200161013b565b61019b61012c81565b61022661024b36600461120b565b610805565b6001546001600160a01b0316610157565b61018261026f3660046112f1565b610a7e565b61018261028236600461131e565b610afe565b610182610295366004611357565b610bf0565b6101826102a8366004611357565b610c69565b6102b5610e62565b60008281526004602052604081205490036102e357604051632fc1a59f60e11b815260040160405180910390fd5b60046000838152602001908152602001600020604051806101400160405290816000820154815260200160018201805461031c9061137b565b80601f01602080910402602001604051908101604052809291908181526020018280546103489061137b565b80156103955780601f1061036a57610100808354040283529160200191610395565b820191906000526020600020905b81548152906001019060200180831161037857829003601f168201915b505050505081526020016002820180546103ae9061137b565b80601f01602080910402602001604051908101604052809291908181526020018280546103da9061137b565b80156104275780601f106103fc57610100808354040283529160200191610427565b820191906000526020600020905b81548152906001019060200180831161040a57829003601f168201915b505050505081526020016003820180546104409061137b565b80601f016020809104026020016040519081016040528092919081815260200182805461046c9061137b565b80156104b95780601f1061048e576101008083540402835291602001916104b9565b820191906000526020600020905b81548152906001019060200180831161049c57829003601f168201915b505050918352505060048201546001600160a01b039081166020808401919091526040805160c081018252600586015463ffffffff80821683526401000000008204811683860152600160401b82041682840152600160601b9004841660608083019190915260068701548516608080840191909152600788015490951660a0830152828601919091528151808201835260088701548152600987015481850152600a870154818401528186015281519081018252600b860180548252600c87015493820193909352600d86018054949095019490939184019161059c9061137b565b80601f01602080910402602001604051908101604052809291908181526020018280546105c89061137b565b80156106155780601f106105ea57610100808354040283529160200191610615565b820191906000526020600020905b8154815290600101906020018083116105f857829003601f168201915b505050919092525050508152600e919091015467ffffffffffffffff81166020830152600160401b900460ff16151560409091015292915050565b6000818152600460205260408120805490910361068057604051632fc1a59f60e11b815260040160405180910390fd5b60048101546001600160a01b031633146106ac576040516282b42960e81b815260040160405180910390fd5b600e01805468ff00000000000000001916905550565b600082815260046020526040812080549091036106f257604051632fc1a59f60e11b815260040160405180910390fd5b60048101546001600160a01b0316331461071e576040516282b42960e81b815260040160405180910390fd5b61072782610cda565b601061073660408401846113af565b9050111561075757604051631623655b60e31b815260040160405180910390fd5b81600b8201610766828261151d565b5050505050565b610775610cfc565b61077f6000610d29565b565b60015433906001600160a01b031681146107be5760405163118cdaa760e01b81526001600160a01b03821660048201526024015b60405180910390fd5b6107c781610d29565b50565b600081815260046020526040812054158015906107ff57506000828152600460205260409020600e0154600160401b900460ff165b92915050565b60006108176080850160608601611357565b6001600160a01b0316336001600160a01b031614610847576040516282b42960e81b815260040160405180910390fd5b61085084610d42565b61085982610cda565b8815806108665750604089115b1561088457604051631623655b60e31b815260040160405180910390fd5b60408711156108a657604051631623655b60e31b815260040160405180910390fd5b6104008511156108c957604051631623655b60e31b815260040160405180910390fd5b60106108d860408401846113af565b905011156108f957604051631623655b60e31b815260040160405180910390fd5b5060035460008181526004602052604090208181556001810161091d8b8d8361145d565b506002810161092d898b8361145d565b506003810161093d87898361145d565b5061094e6080860160608701611357565b6004820180546001600160a01b0319166001600160a01b0392909216919091179055846005820161097f8282611662565b505083356008820155602084013560098201556040840135600a82015582600b82016109ab828261151d565b5050600e8101805468ffffffffffffffffff191667ffffffffffffffff421617600160401b1790556109e36080860160608701611357565b600083815260056020526040902080546001600160a01b0319166001600160a01b0392909216919091179055610a1a82600161175c565b600355610a2d6080860160608701611357565b6001600160a01b0316827f13a0f02e6e9faddb0e65b0322b5c9568b4b301b95e6fe1debb60494c911f50e18d8d604051610a6892919061177d565b60405180910390a3509998505050505050505050565b60008281526004602052604081208054909103610aae57604051632fc1a59f60e11b815260040160405180910390fd5b60048101546001600160a01b03163314610ada576040516282b42960e81b815260040160405180910390fd5b813560088201908155602083013560098301556040830135600a8301558290610766565b60008281526004602052604081208054909103610b2e57604051632fc1a59f60e11b815260040160405180910390fd5b60048101546001600160a01b03163314610b5a576040516282b42960e81b815260040160405180910390fd5b610b6382610d42565b8160058201610b728282611662565b508390507f7d35432957258be51138a7cbadf1f571e917b5b5a4e860e059484e191d9ee564610ba460208501856117ac565b610bb460408601602087016117ac565b610bc460608701604088016117ac565b6040805163ffffffff9485168152928416602084015292168183015290519081900360600190a2505050565b610bf8610cfc565b6001600160a01b038116610c1f5760405163d92e233d60e01b815260040160405180910390fd5b600280546001600160a01b0319166001600160a01b0383169081179091556040517fb916d07c980006ab0bae9d0dcc612a069bcba68647e0c53e2a153fc1a6761ee490600090a250565b610c71610cfc565b600180546001600160a01b0383166001600160a01b03199091168117909155610ca26000546001600160a01b031690565b6001600160a01b03167f38d16b8cac22d99fc7c124b9cd0de2d3fa1faef420bfe791d8c362d765e2270060405160405180910390a350565b80356000036107c757604051639763439960e01b815260040160405180910390fd5b6000546001600160a01b0316331461077f5760405163118cdaa760e01b81523360048201526024016107b5565b600180546001600160a01b03191690556107c781610e12565b6000610d5460a0830160808401611357565b6001600160a01b03161480610d8157506000610d7660c0830160a08401611357565b6001600160a01b0316145b15610d9f5760405163d92e233d60e01b815260040160405180910390fd5b610daf60608201604083016117ac565b63ffffffff16610dc560408301602084016117ac565b63ffffffff16610dd860208401846117ac565b63ffffffff16610de8919061175c565b610df2919061175c565b6064146107c757604051636edcc52360e01b815260040160405180910390fd5b600080546001600160a01b038381166001600160a01b0319831681178455604051919092169283917f8be0079c531659141344cd1fd0a4f28419497f9722a3daafe3b4186f6b6457e09190a35050565b6040518061014001604052806000815260200160608152602001606081526020016060815260200160006001600160a01b03168152602001610f006040518060c00160405280600063ffffffff168152602001600063ffffffff168152602001600063ffffffff16815260200160006001600160a01b0316815260200160006001600160a01b0316815260200160006001600160a01b031681525090565b8152602001610f2960405180606001604052806000815260200160008152602001600081525090565b8152602001610f5260405180606001604052806000815260200160008152602001606081525090565b815260006020820181905260409091015290565b600060208284031215610f7857600080fd5b5035919050565b6000815180845260005b81811015610fa557602081850181015186830182015201610f89565b506000602082860101526020601f19601f83011685010191505092915050565b80518252602081015160208301526000604082015160606040850152610fee6060850182610f7f565b949350505050565b60208152815160208201526000602083015161022080604085015261101f610240850183610f7f565b91506040850151601f198086850301606087015261103d8483610f7f565b9350606087015191508086850301608087015261105a8483610f7f565b93506080870151915061107860a08701836001600160a01b03169052565b60a087810151805163ffffffff90811660c08a01526020820151811660e08a015260408201511661010089015260608101516001600160a01b039081166101208a0152608082015181166101408a015291810151909116610160880152915060c0870151805161018088015260208101516101a088015260408101516101c0880152915060e0870151915080868503016101e0870152506111198382610fc5565b92505061010085015161113961020086018267ffffffffffffffff169052565b50610120850151801515858301525090949350505050565b60006060828403121561116357600080fd5b50919050565b6000806040838503121561117c57600080fd5b82359150602083013567ffffffffffffffff81111561119a57600080fd5b6111a685828601611151565b9150509250929050565b60008083601f8401126111c257600080fd5b50813567ffffffffffffffff8111156111da57600080fd5b6020830191508360208285010111156111f257600080fd5b9250929050565b600060c0828403121561116357600080fd5b60008060008060008060008060006101a08a8c03121561122a57600080fd5b893567ffffffffffffffff8082111561124257600080fd5b61124e8d838e016111b0565b909b50995060208c013591508082111561126757600080fd5b6112738d838e016111b0565b909950975060408c013591508082111561128c57600080fd5b6112988d838e016111b0565b90975095508591506112ad8d60608e016111f9565b94506112bd8d6101208e01611151565b93506101808c01359150808211156112d457600080fd5b506112e18c828d01611151565b9150509295985092959850929598565b6000806080838503121561130457600080fd5b823591506113158460208501611151565b90509250929050565b60008060e0838503121561133157600080fd5b8235915061131584602085016111f9565b6001600160a01b03811681146107c757600080fd5b60006020828403121561136957600080fd5b813561137481611342565b9392505050565b600181811c9082168061138f57607f821691505b60208210810361116357634e487b7160e01b600052602260045260246000fd5b6000808335601e198436030181126113c657600080fd5b83018035915067ffffffffffffffff8211156113e157600080fd5b6020019150368190038213156111f257600080fd5b634e487b7160e01b600052604160045260246000fd5b601f821115611458576000816000526020600020601f850160051c810160208610156114355750805b601f850160051c820191505b8181101561145457828155600101611441565b5050505b505050565b67ffffffffffffffff831115611475576114756113f6565b61148983611483835461137b565b8361140c565b6000601f8411600181146114bd57600085156114a55750838201355b600019600387901b1c1916600186901b178355610766565b600083815260209020601f19861690835b828110156114ee57868501358255602094850194600190920191016114ce565b508682101561150b5760001960f88860031b161c19848701351681555b505060018560011b0183555050505050565b8135815560016020808401356001840155600283016040850135601e1986360301811261154957600080fd5b8501803567ffffffffffffffff81111561156257600080fd5b803603848301131561157357600080fd5b61158781611581855461137b565b8561140c565b6000601f8211600181146115bd57600083156115a557508382018601355b600019600385901b1c1916600184901b178555611618565b600085815260209020601f19841690835b828110156115ed578685018901358255938801939089019088016115ce565b508482101561160c5760001960f88660031b161c198885880101351681555b505060018360011b0185555b505050505050505050565b63ffffffff811681146107c757600080fd5b600081356107ff81611342565b80546001600160a01b0319166001600160a01b0392909216919091179055565b813561166d81611623565b63ffffffff8116905081548163ffffffff198216178355602084013561169281611623565b67ffffffff000000008160201b169050808367ffffffffffffffff1984161717845560408501356116c281611623565b6bffffffff00000000000000008160401b16846bffffffffffffffffffffffff198516178317178555505050506117286116fe60608401611635565b82546bffffffffffffffffffffffff1660609190911b6bffffffffffffffffffffffff1916178255565b61174061173760808401611635565b60018301611642565b61175861174f60a08401611635565b60028301611642565b5050565b808201808211156107ff57634e487b7160e01b600052601160045260246000fd5b60208152816020820152818360408301376000818301604090810191909152601f909201601f19160101919050565b6000602082840312156117be57600080fd5b81356113748161162356fea26469706673582212204bf8972a3529b7517d235c57c7eeff0fdb7aa6aa2c1c5339845ec2a1e5d356fd64736f6c63430008180033","opcodes":"PUSH1 0x80 PUSH1 0x40 MSTORE CALLVALUE DUP1 ISZERO PUSH3 0x11 JUMPI PUSH1 0x0 DUP1 REVERT JUMPDEST POP PUSH1 0x40 MLOAD PUSH3 0x1969 CODESIZE SUB DUP1 PUSH3 0x1969 DUP4 CODECOPY DUP2 ADD PUSH1 0x40 DUP2 SWAP1 MSTORE PUSH3 0x34 SWAP2 PUSH3 0x128 JUMP JUMPDEST CALLER DUP1 PUSH3 0x5B JUMPI PUSH1 0x40 MLOAD PUSH4 0x1E4FBDF7 PUSH1 0xE0 SHL DUP2 MSTORE PUSH1 0x0 PUSH1 0x4 DUP3 ADD MSTORE PUSH1 0x24 ADD PUSH1 0x40 MLOAD DUP1 SWAP2 SUB SWAP1 REVERT JUMPDEST PUSH3 0x66 DUP2 PUSH3 0xBA JUMP JUMPDEST POP PUSH1 0x1 PUSH1 0x1 PUSH1 0xA0 SHL SUB DUP2 AND PUSH3 0x8F JUMPI PUSH1 0x40 MLOAD PUSH4 0xD92E233D PUSH1 0xE0 SHL DUP2 MSTORE PUSH1 0x4 ADD PUSH1 0x40 MLOAD DUP1 SWAP2 SUB SWAP1 REVERT JUMPDEST PUSH1 0x2 DUP1 SLOAD PUSH1 0x1 PUSH1 0x1 PUSH1 0xA0 SHL SUB NOT AND PUSH1 0x1 PUSH1 0x1 PUSH1 0xA0 SHL SUB SWAP3 SWAP1 SWAP3 AND SWAP2 SWAP1 SWAP2 OR SWAP1 SSTORE PUSH1 0x1 PUSH1 0x3 SSTORE PUSH3 0x15A JUMP JUMPDEST PUSH1 0x1 DUP1 SLOAD PUSH1 0x1 PUSH1 0x1 PUSH1 0xA0 SHL SUB NOT AND SWAP1 SSTORE PUSH3 0xD5 DUP2 PUSH3 0xD8 JUMP JUMPDEST POP JUMP JUMPDEST PUSH1 0x0 DUP1 SLOAD PUSH1 0x1 PUSH1 0x1 PUSH1 0xA0 SHL SUB DUP4 DUP2 AND PUSH1 0x1 PUSH1 0x1 PUSH1 0xA0 SHL SUB NOT DUP4 AND DUP2 OR DUP5 SSTORE PUSH1 0x40 MLOAD SWAP2 SWAP1 SWAP3 AND SWAP3 DUP4 SWAP2 PUSH32 0x8BE0079C531659141344CD1FD0A4F28419497F9722A3DAAFE3B4186F6B6457E0 SWAP2 SWAP1 LOG3 POP POP JUMP JUMPDEST PUSH1 0x0 PUSH1 0x20 DUP3 DUP5 SUB SLT ISZERO PUSH3 0x13B JUMPI PUSH1 0x0 DUP1 REVERT JUMPDEST DUP2 MLOAD PUSH1 0x1 PUSH1 0x1 PUSH1 0xA0 SHL SUB DUP2 AND DUP2 EQ PUSH3 0x153 JUMPI PUSH1 0x0 DUP1 REVERT JUMPDEST SWAP4 SWAP3 POP POP POP JUMP JUMPDEST PUSH2 0x17FF DUP1 PUSH3 0x16A PUSH1 0x0 CODECOPY PUSH1 0x0 RETURN INVALID PUSH1 0x80 PUSH1 0x40 MSTORE CALLVALUE DUP1 ISZERO PUSH2 0x10 JUMPI PUSH1 0x0 DUP1 REVERT JUMPDEST POP PUSH1 0x4 CALLDATASIZE LT PUSH2 0x116 JUMPI PUSH1 0x0 CALLDATALOAD PUSH1 0xE0 SHR DUP1 PUSH4 0x8DA5CB5B GT PUSH2 0xA2 JUMPI DUP1 PUSH4 0xE30C3978 GT PUSH2 0x71 JUMPI DUP1 PUSH4 0xE30C3978 EQ PUSH2 0x250 JUMPI DUP1 PUSH4 0xE556887A EQ PUSH2 0x261 JUMPI DUP1 PUSH4 0xED0C0D6F EQ PUSH2 0x274 JUMPI DUP1 PUSH4 0xF01E9A8B EQ PUSH2 0x287 JUMPI DUP1 PUSH4 0xF2FDE38B EQ PUSH2 0x29A JUMPI PUSH1 0x0 DUP1 REVERT JUMPDEST DUP1 PUSH4 0x8DA5CB5B EQ PUSH2 0x20C JUMPI DUP1 PUSH4 0x95E3F86E EQ PUSH2 0x21D JUMPI DUP1 PUSH4 0xBE378228 EQ PUSH2 0x234 JUMPI DUP1 PUSH4 0xCBDB314B EQ PUSH2 0x23D JUMPI PUSH1 0x0 DUP1 REVERT JUMPDEST DUP1 PUSH4 0x35659FB8 GT PUSH2 0xE9 JUMPI DUP1 PUSH4 0x35659FB8 EQ PUSH2 0x197 JUMPI DUP1 PUSH4 0x589A1743 EQ PUSH2 0x1B0 JUMPI DUP1 PUSH4 0x715018A6 EQ PUSH2 0x1D9 JUMPI DUP1 PUSH4 0x79BA5097 EQ PUSH2 0x1E1 JUMPI DUP1 PUSH4 0x82AFD23B EQ PUSH2 0x1E9 JUMPI PUSH1 0x0 DUP1 REVERT JUMPDEST DUP1 PUSH4 0x47B094A EQ PUSH2 0x11B JUMPI DUP1 PUSH4 0x6D6E63F EQ PUSH2 0x144 JUMPI DUP1 PUSH4 0x1D8B9EF2 EQ PUSH2 0x16F JUMPI DUP1 PUSH4 0x2132A99B EQ PUSH2 0x184 JUMPI JUMPDEST PUSH1 0x0 DUP1 REVERT JUMPDEST PUSH2 0x12E PUSH2 0x129 CALLDATASIZE PUSH1 0x4 PUSH2 0xF66 JUMP JUMPDEST PUSH2 0x2AD JUMP JUMPDEST PUSH1 0x40 MLOAD PUSH2 0x13B SWAP2 SWAP1 PUSH2 0xFF6 JUMP JUMPDEST PUSH1 0x40 MLOAD DUP1 SWAP2 SUB SWAP1 RETURN JUMPDEST PUSH1 0x2 SLOAD PUSH2 0x157 SWAP1 PUSH1 0x1 PUSH1 0x1 PUSH1 0xA0 SHL SUB AND DUP2 JUMP JUMPDEST PUSH1 0x40 MLOAD PUSH1 0x1 PUSH1 0x1 PUSH1 0xA0 SHL SUB SWAP1 SWAP2 AND DUP2 MSTORE PUSH1 0x20 ADD PUSH2 0x13B JUMP JUMPDEST PUSH2 0x182 PUSH2 0x17D CALLDATASIZE PUSH1 0x4 PUSH2 0xF66 JUMP JUMPDEST PUSH2 0x650 JUMP JUMPDEST STOP JUMPDEST PUSH2 0x182 PUSH2 0x192 CALLDATASIZE PUSH1 0x4 PUSH2 0x1169 JUMP JUMPDEST PUSH2 0x6C2 JUMP JUMPDEST PUSH2 0x12C JUMPDEST PUSH1 0x40 MLOAD PUSH4 0xFFFFFFFF SWAP1 SWAP2 AND DUP2 MSTORE PUSH1 0x20 ADD PUSH2 0x13B JUMP JUMPDEST PUSH2 0x157 PUSH2 0x1BE CALLDATASIZE PUSH1 0x4 PUSH2 0xF66 JUMP JUMPDEST PUSH1 0x5 PUSH1 0x20 MSTORE PUSH1 0x0 SWAP1 DUP2 MSTORE PUSH1 0x40 SWAP1 KECCAK256 SLOAD PUSH1 0x1 PUSH1 0x1 PUSH1 0xA0 SHL SUB AND DUP2 JUMP JUMPDEST PUSH2 0x182 PUSH2 0x76D JUMP JUMPDEST PUSH2 0x182 PUSH2 0x781 JUMP JUMPDEST PUSH2 0x1FC PUSH2 0x1F7 CALLDATASIZE PUSH1 0x4 PUSH2 0xF66 JUMP JUMPDEST PUSH2 0x7CA JUMP JUMPDEST PUSH1 0x40 MLOAD SWAP1 ISZERO ISZERO DUP2 MSTORE PUSH1 0x20 ADD PUSH2 0x13B JUMP JUMPDEST PUSH1 0x0 SLOAD PUSH1 0x1 PUSH1 0x1 PUSH1 0xA0 SHL SUB AND PUSH2 0x157 JUMP JUMPDEST PUSH2 0x226 PUSH1 0x3 SLOAD DUP2 JUMP JUMPDEST PUSH1 0x40 MLOAD SWAP1 DUP2 MSTORE PUSH1 0x20 ADD PUSH2 0x13B JUMP JUMPDEST PUSH2 0x19B PUSH2 0x12C DUP2 JUMP JUMPDEST PUSH2 0x226 PUSH2 0x24B CALLDATASIZE PUSH1 0x4 PUSH2 0x120B JUMP JUMPDEST PUSH2 0x805 JUMP JUMPDEST PUSH1 0x1 SLOAD PUSH1 0x1 PUSH1 0x1 PUSH1 0xA0 SHL SUB AND PUSH2 0x157 JUMP JUMPDEST PUSH2 0x182 PUSH2 0x26F CALLDATASIZE PUSH1 0x4 PUSH2 0x12F1 JUMP JUMPDEST PUSH2 0xA7E JUMP JUMPDEST PUSH2 0x182 PUSH2 0x282 CALLDATASIZE PUSH1 0x4 PUSH2 0x131E JUMP JUMPDEST PUSH2 0xAFE JUMP JUMPDEST PUSH2 0x182 PUSH2 0x295 CALLDATASIZE PUSH1 0x4 PUSH2 0x1357 JUMP JUMPDEST PUSH2 0xBF0 JUMP JUMPDEST PUSH2 0x182 PUSH2 0x2A8 CALLDATASIZE PUSH1 0x4 PUSH2 0x1357 JUMP JUMPDEST PUSH2 0xC69 JUMP JUMPDEST PUSH2 0x2B5 PUSH2 0xE62 JUMP JUMPDEST PUSH1 0x0 DUP3 DUP2 MSTORE PUSH1 0x4 PUSH1 0x20 MSTORE PUSH1 0x40 DUP2 KECCAK256 SLOAD SWAP1 SUB PUSH2 0x2E3 JUMPI PUSH1 0x40 MLOAD PUSH4 0x2FC1A59F PUSH1 0xE1 SHL DUP2 MSTORE PUSH1 0x4 ADD PUSH1 0x40 MLOAD DUP1 SWAP2 SUB SWAP1 REVERT JUMPDEST PUSH1 0x4 PUSH1 0x0 DUP4 DUP2 MSTORE PUSH1 0x20 ADD SWAP1 DUP2 MSTORE PUSH1 0x20 ADD PUSH1 0x0 KECCAK256 PUSH1 0x40 MLOAD DUP1 PUSH2 0x140 ADD PUSH1 0x40 MSTORE SWAP1 DUP2 PUSH1 0x0 DUP3 ADD SLOAD DUP2 MSTORE PUSH1 0x20 ADD PUSH1 0x1 DUP3 ADD DUP1 SLOAD PUSH2 0x31C SWAP1 PUSH2 0x137B JUMP JUMPDEST DUP1 PUSH1 0x1F ADD PUSH1 0x20 DUP1 SWAP2 DIV MUL PUSH1 0x20 ADD PUSH1 0x40 MLOAD SWAP1 DUP2 ADD PUSH1 0x40 MSTORE DUP1 SWAP3 SWAP2 SWAP1 DUP2 DUP2 MSTORE PUSH1 0x20 ADD DUP3 DUP1 SLOAD PUSH2 0x348 SWAP1 PUSH2 0x137B JUMP JUMPDEST DUP1 ISZERO PUSH2 0x395 JUMPI DUP1 PUSH1 0x1F LT PUSH2 0x36A JUMPI PUSH2 0x100 DUP1 DUP4 SLOAD DIV MUL DUP4 MSTORE SWAP2 PUSH1 0x20 ADD SWAP2 PUSH2 0x395 JUMP JUMPDEST DUP3 ADD SWAP2 SWAP1 PUSH1 0x0 MSTORE PUSH1 0x20 PUSH1 0x0 KECCAK256 SWAP1 JUMPDEST DUP2 SLOAD DUP2 MSTORE SWAP1 PUSH1 0x1 ADD SWAP1 PUSH1 0x20 ADD DUP1 DUP4 GT PUSH2 0x378 JUMPI DUP3 SWAP1 SUB PUSH1 0x1F AND DUP3 ADD SWAP2 JUMPDEST POP POP POP POP POP DUP2 MSTORE PUSH1 0x20 ADD PUSH1 0x2 DUP3 ADD DUP1 SLOAD PUSH2 0x3AE SWAP1 PUSH2 0x137B JUMP JUMPDEST DUP1 PUSH1 0x1F ADD PUSH1 0x20 DUP1 SWAP2 DIV MUL PUSH1 0x20 ADD PUSH1 0x40 MLOAD SWAP1 DUP2 ADD PUSH1 0x40 MSTORE DUP1 SWAP3 SWAP2 SWAP1 DUP2 DUP2 MSTORE PUSH1 0x20 ADD DUP3 DUP1 SLOAD PUSH2 0x3DA SWAP1 PUSH2 0x137B JUMP JUMPDEST DUP1 ISZERO PUSH2 0x427 JUMPI DUP1 PUSH1 0x1F LT PUSH2 0x3FC JUMPI PUSH2 0x100 DUP1 DUP4 SLOAD DIV MUL DUP4 MSTORE SWAP2 PUSH1 0x20 ADD SWAP2 PUSH2 0x427 JUMP JUMPDEST DUP3 ADD SWAP2 SWAP1 PUSH1 0x0 MSTORE PUSH1 0x20 PUSH1 0x0 KECCAK256 SWAP1 JUMPDEST DUP2 SLOAD DUP2 MSTORE SWAP1 PUSH1 0x1 ADD SWAP1 PUSH1 0x20 ADD DUP1 DUP4 GT PUSH2 0x40A JUMPI DUP3 SWAP1 SUB PUSH1 0x1F AND DUP3 ADD SWAP2 JUMPDEST POP POP POP POP POP DUP2 MSTORE PUSH1 0x20 ADD PUSH1 0x3 DUP3 ADD DUP1 SLOAD PUSH2 0x440 SWAP1 PUSH2 0x137B JUMP JUMPDEST DUP1 PUSH1 0x1F ADD PUSH1 0x20 DUP1 SWAP2 DIV MUL PUSH1 0x20 ADD PUSH1 0x40 MLOAD SWAP1 DUP2 ADD PUSH1 0x40 MSTORE DUP1 SWAP3 SWAP2 SWAP1 DUP2 DUP2 MSTORE PUSH1 0x20 ADD DUP3 DUP1 SLOAD PUSH2 0x46C SWAP1 PUSH2 0x137B JUMP JUMPDEST DUP1 ISZERO PUSH2 0x4B9 JUMPI DUP1 PUSH1 0x1F LT PUSH2 0x48E JUMPI PUSH2 0x100 DUP1 DUP4 SLOAD DIV MUL DUP4 MSTORE SWAP2 PUSH1 0x20 ADD SWAP2 PUSH2 0x4B9 JUMP JUMPDEST DUP3 ADD SWAP2 SWAP1 PUSH1 0x0 MSTORE PUSH1 0x20 PUSH1 0x0 KECCAK256 SWAP1 JUMPDEST DUP2 SLOAD DUP2 MSTORE SWAP1 PUSH1 0x1 ADD SWAP1 PUSH1 0x20 ADD DUP1 DUP4 GT PUSH2 0x49C JUMPI DUP3 SWAP1 SUB PUSH1 0x1F AND DUP3 ADD SWAP2 JUMPDEST POP POP POP SWAP2 DUP4 MSTORE POP POP PUSH1 0x4 DUP3 ADD SLOAD PUSH1 0x1 PUSH1 0x1 PUSH1 0xA0 SHL SUB SWAP1 DUP2 AND PUSH1 0x20 DUP1 DUP5 ADD SWAP2 SWAP1 SWAP2 MSTORE PUSH1 0x40 DUP1 MLOAD PUSH1 0xC0 DUP2 ADD DUP3 MSTORE PUSH1 0x5 DUP7 ADD SLOAD PUSH4 0xFFFFFFFF DUP1 DUP3 AND DUP4 MSTORE PUSH5 0x100000000 DUP3 DIV DUP2 AND DUP4 DUP7 ADD MSTORE PUSH1 0x1 PUSH1 0x40 SHL DUP3 DIV AND DUP3 DUP5 ADD MSTORE PUSH1 0x1 PUSH1 0x60 SHL SWAP1 DIV DUP5 AND PUSH1 0x60 DUP1 DUP4 ADD SWAP2 SWAP1 SWAP2 MSTORE PUSH1 0x6 DUP8 ADD SLOAD DUP6 AND PUSH1 0x80 DUP1 DUP5 ADD SWAP2 SWAP1 SWAP2 MSTORE PUSH1 0x7 DUP9 ADD SLOAD SWAP1 SWAP6 AND PUSH1 0xA0 DUP4 ADD MSTORE DUP3 DUP7 ADD SWAP2 SWAP1 SWAP2 MSTORE DUP2 MLOAD DUP1 DUP3 ADD DUP4 MSTORE PUSH1 0x8 DUP8 ADD SLOAD DUP2 MSTORE PUSH1 0x9 DUP8 ADD SLOAD DUP2 DUP6 ADD MSTORE PUSH1 0xA DUP8 ADD SLOAD DUP2 DUP5 ADD MSTORE DUP2 DUP7 ADD MSTORE DUP2 MLOAD SWAP1 DUP2 ADD DUP3 MSTORE PUSH1 0xB DUP7 ADD DUP1 SLOAD DUP3 MSTORE PUSH1 0xC DUP8 ADD SLOAD SWAP4 DUP3 ADD SWAP4 SWAP1 SWAP4 MSTORE PUSH1 0xD DUP7 ADD DUP1 SLOAD SWAP5 SWAP1 SWAP6 ADD SWAP5 SWAP1 SWAP4 SWAP2 DUP5 ADD SWAP2 PUSH2 0x59C SWAP1 PUSH2 0x137B JUMP JUMPDEST DUP1 PUSH1 0x1F ADD PUSH1 0x20 DUP1 SWAP2 DIV MUL PUSH1 0x20 ADD PUSH1 0x40 MLOAD SWAP1 DUP2 ADD PUSH1 0x40 MSTORE DUP1 SWAP3 SWAP2 SWAP1 DUP2 DUP2 MSTORE PUSH1 0x20 ADD DUP3 DUP1 SLOAD PUSH2 0x5C8 SWAP1 PUSH2 0x137B JUMP JUMPDEST DUP1 ISZERO PUSH2 0x615 JUMPI DUP1 PUSH1 0x1F LT PUSH2 0x5EA JUMPI PUSH2 0x100 DUP1 DUP4 SLOAD DIV MUL DUP4 MSTORE SWAP2 PUSH1 0x20 ADD SWAP2 PUSH2 0x615 JUMP JUMPDEST DUP3 ADD SWAP2 SWAP1 PUSH1 0x0 MSTORE PUSH1 0x20 PUSH1 0x0 KECCAK256 SWAP1 JUMPDEST DUP2 SLOAD DUP2 MSTORE SWAP1 PUSH1 0x1 ADD SWAP1 PUSH1 0x20 ADD DUP1 DUP4 GT PUSH2 0x5F8 JUMPI DUP3 SWAP1 SUB PUSH1 0x1F AND DUP3 ADD SWAP2 JUMPDEST POP POP POP SWAP2 SWAP1 SWAP3 MSTORE POP POP POP DUP2 MSTORE PUSH1 0xE SWAP2 SWAP1 SWAP2 ADD SLOAD PUSH8 0xFFFFFFFFFFFFFFFF DUP2 AND PUSH1 0x20 DUP4 ADD MSTORE PUSH1 0x1 PUSH1 0x40 SHL SWAP1 DIV PUSH1 0xFF AND ISZERO ISZERO PUSH1 0x40 SWAP1 SWAP2 ADD MSTORE SWAP3 SWAP2 POP POP JUMP JUMPDEST PUSH1 0x0 DUP2 DUP2 MSTORE PUSH1 0x4 PUSH1 0x20 MSTORE PUSH1 0x40 DUP2 KECCAK256 DUP1 SLOAD SWAP1 SWAP2 SUB PUSH2 0x680 JUMPI PUSH1 0x40 MLOAD PUSH4 0x2FC1A59F PUSH1 0xE1 SHL DUP2 MSTORE PUSH1 0x4 ADD PUSH1 0x40 MLOAD DUP1 SWAP2 SUB SWAP1 REVERT JUMPDEST PUSH1 0x4 DUP2 ADD SLOAD PUSH1 0x1 PUSH1 0x1 PUSH1 0xA0 SHL SUB AND CALLER EQ PUSH2 0x6AC JUMPI PUSH1 0x40 MLOAD PUSH3 0x82B429 PUSH1 0xE8 SHL DUP2 MSTORE PUSH1 0x4 ADD PUSH1 0x40 MLOAD DUP1 SWAP2 SUB SWAP1 REVERT JUMPDEST PUSH1 0xE ADD DUP1 SLOAD PUSH9 0xFF0000000000000000 NOT AND SWAP1 SSTORE POP JUMP JUMPDEST PUSH1 0x0 DUP3 DUP2 MSTORE PUSH1 0x4 PUSH1 0x20 MSTORE PUSH1 0x40 DUP2 KECCAK256 DUP1 SLOAD SWAP1 SWAP2 SUB PUSH2 0x6F2 JUMPI PUSH1 0x40 MLOAD PUSH4 0x2FC1A59F PUSH1 0xE1 SHL DUP2 MSTORE PUSH1 0x4 ADD PUSH1 0x40 MLOAD DUP1 SWAP2 SUB SWAP1 REVERT JUMPDEST PUSH1 0x4 DUP2 ADD SLOAD PUSH1 0x1 PUSH1 0x1 PUSH1 0xA0 SHL SUB AND CALLER EQ PUSH2 0x71E JUMPI PUSH1 0x40 MLOAD PUSH3 0x82B429 PUSH1 0xE8 SHL DUP2 MSTORE PUSH1 0x4 ADD PUSH1 0x40 MLOAD DUP1 SWAP2 SUB SWAP1 REVERT JUMPDEST PUSH2 0x727 DUP3 PUSH2 0xCDA JUMP JUMPDEST PUSH1 0x10 PUSH2 0x736 PUSH1 0x40 DUP5 ADD DUP5 PUSH2 0x13AF JUMP JUMPDEST SWAP1 POP GT ISZERO PUSH2 0x757 JUMPI PUSH1 0x40 MLOAD PUSH4 0x1623655B PUSH1 0xE3 SHL DUP2 MSTORE PUSH1 0x4 ADD PUSH1 0x40 MLOAD DUP1 SWAP2 SUB SWAP1 REVERT JUMPDEST DUP2 PUSH1 0xB DUP3 ADD PUSH2 0x766 DUP3 DUP3 PUSH2 0x151D JUMP JUMPDEST POP POP POP POP POP JUMP JUMPDEST PUSH2 0x775 PUSH2 0xCFC JUMP JUMPDEST PUSH2 0x77F PUSH1 0x0 PUSH2 0xD29 JUMP JUMPDEST JUMP JUMPDEST PUSH1 0x1 SLOAD CALLER SWAP1 PUSH1 0x1 PUSH1 0x1 PUSH1 0xA0 SHL SUB AND DUP2 EQ PUSH2 0x7BE JUMPI PUSH1 0x40 MLOAD PUSH4 0x118CDAA7 PUSH1 0xE0 SHL DUP2 MSTORE PUSH1 0x1 PUSH1 0x1 PUSH1 0xA0 SHL SUB DUP3 AND PUSH1 0x4 DUP3 ADD MSTORE PUSH1 0x24 ADD JUMPDEST PUSH1 0x40 MLOAD DUP1 SWAP2 SUB SWAP1 REVERT JUMPDEST PUSH2 0x7C7 DUP2 PUSH2 0xD29 JUMP JUMPDEST POP JUMP JUMPDEST PUSH1 0x0 DUP2 DUP2 MSTORE PUSH1 0x4 PUSH1 0x20 MSTORE PUSH1 0x40 DUP2 KECCAK256 SLOAD ISZERO DUP1 ISZERO SWAP1 PUSH2 0x7FF JUMPI POP PUSH1 0x0 DUP3 DUP2 MSTORE PUSH1 0x4 PUSH1 0x20 MSTORE PUSH1 0x40 SWAP1 KECCAK256 PUSH1 0xE ADD SLOAD PUSH1 0x1 PUSH1 0x40 SHL SWAP1 DIV PUSH1 0xFF AND JUMPDEST SWAP3 SWAP2 POP POP JUMP JUMPDEST PUSH1 0x0 PUSH2 0x817 PUSH1 0x80 DUP6 ADD PUSH1 0x60 DUP7 ADD PUSH2 0x1357 JUMP JUMPDEST PUSH1 0x1 PUSH1 0x1 PUSH1 0xA0 SHL SUB AND CALLER PUSH1 0x1 PUSH1 0x1 PUSH1 0xA0 SHL SUB AND EQ PUSH2 0x847 JUMPI PUSH1 0x40 MLOAD PUSH3 0x82B429 PUSH1 0xE8 SHL DUP2 MSTORE PUSH1 0x4 ADD PUSH1 0x40 MLOAD DUP1 SWAP2 SUB SWAP1 REVERT JUMPDEST PUSH2 0x850 DUP5 PUSH2 0xD42 JUMP JUMPDEST PUSH2 0x859 DUP3 PUSH2 0xCDA JUMP JUMPDEST DUP9 ISZERO DUP1 PUSH2 0x866 JUMPI POP PUSH1 0x40 DUP10 GT JUMPDEST ISZERO PUSH2 0x884 JUMPI PUSH1 0x40 MLOAD PUSH4 0x1623655B PUSH1 0xE3 SHL DUP2 MSTORE PUSH1 0x4 ADD PUSH1 0x40 MLOAD DUP1 SWAP2 SUB SWAP1 REVERT JUMPDEST PUSH1 0x40 DUP8 GT ISZERO PUSH2 0x8A6 JUMPI PUSH1 0x40 MLOAD PUSH4 0x1623655B PUSH1 0xE3 SHL DUP2 MSTORE PUSH1 0x4 ADD PUSH1 0x40 MLOAD DUP1 SWAP2 SUB SWAP1 REVERT JUMPDEST PUSH2 0x400 DUP6 GT ISZERO PUSH2 0x8C9 JUMPI PUSH1 0x40 MLOAD PUSH4 0x1623655B PUSH1 0xE3 SHL DUP2 MSTORE PUSH1 0x4 ADD PUSH1 0x40 MLOAD DUP1 SWAP2 SUB SWAP1 REVERT JUMPDEST PUSH1 0x10 PUSH2 0x8D8 PUSH1 0x40 DUP5 ADD DUP5 PUSH2 0x13AF JUMP JUMPDEST SWAP1 POP GT ISZERO PUSH2 0x8F9 JUMPI PUSH1 0x40 MLOAD PUSH4 0x1623655B PUSH1 0xE3 SHL DUP2 MSTORE PUSH1 0x4 ADD PUSH1 0x40 MLOAD DUP1 SWAP2 SUB SWAP1 REVERT JUMPDEST POP PUSH1 0x3 SLOAD PUSH1 0x0 DUP2 DUP2 MSTORE PUSH1 0x4 PUSH1 0x20 MSTORE PUSH1 0x40 SWAP1 KECCAK256 DUP2 DUP2 SSTORE PUSH1 0x1 DUP2 ADD PUSH2 0x91D DUP12 DUP14 DUP4 PUSH2 0x145D JUMP JUMPDEST POP PUSH1 0x2 DUP2 ADD PUSH2 0x92D DUP10 DUP12 DUP4 PUSH2 0x145D JUMP JUMPDEST POP PUSH1 0x3 DUP2 ADD PUSH2 0x93D DUP8 DUP10 DUP4 PUSH2 0x145D JUMP JUMPDEST POP PUSH2 0x94E PUSH1 0x80 DUP7 ADD PUSH1 0x60 DUP8 ADD PUSH2 0x1357 JUMP JUMPDEST PUSH1 0x4 DUP3 ADD DUP1 SLOAD PUSH1 0x1 PUSH1 0x1 PUSH1 0xA0 SHL SUB NOT AND PUSH1 0x1 PUSH1 0x1 PUSH1 0xA0 SHL SUB SWAP3 SWAP1 SWAP3 AND SWAP2 SWAP1 SWAP2 OR SWAP1 SSTORE DUP5 PUSH1 0x5 DUP3 ADD PUSH2 0x97F DUP3 DUP3 PUSH2 0x1662 JUMP JUMPDEST POP POP DUP4 CALLDATALOAD PUSH1 0x8 DUP3 ADD SSTORE PUSH1 0x20 DUP5 ADD CALLDATALOAD PUSH1 0x9 DUP3 ADD SSTORE PUSH1 0x40 DUP5 ADD CALLDATALOAD PUSH1 0xA DUP3 ADD SSTORE DUP3 PUSH1 0xB DUP3 ADD PUSH2 0x9AB DUP3 DUP3 PUSH2 0x151D JUMP JUMPDEST POP POP PUSH1 0xE DUP2 ADD DUP1 SLOAD PUSH9 0xFFFFFFFFFFFFFFFFFF NOT AND PUSH8 0xFFFFFFFFFFFFFFFF TIMESTAMP AND OR PUSH1 0x1 PUSH1 0x40 SHL OR SWAP1 SSTORE PUSH2 0x9E3 PUSH1 0x80 DUP7 ADD PUSH1 0x60 DUP8 ADD PUSH2 0x1357 JUMP JUMPDEST PUSH1 0x0 DUP4 DUP2 MSTORE PUSH1 0x5 PUSH1 0x20 MSTORE PUSH1 0x40 SWAP1 KECCAK256 DUP1 SLOAD PUSH1 0x1 PUSH1 0x1 PUSH1 0xA0 SHL SUB NOT AND PUSH1 0x1 PUSH1 0x1 PUSH1 0xA0 SHL SUB SWAP3 SWAP1 SWAP3 AND SWAP2 SWAP1 SWAP2 OR SWAP1 SSTORE PUSH2 0xA1A DUP3 PUSH1 0x1 PUSH2 0x175C JUMP JUMPDEST PUSH1 0x3 SSTORE PUSH2 0xA2D PUSH1 0x80 DUP7 ADD PUSH1 0x60 DUP8 ADD PUSH2 0x1357 JUMP JUMPDEST PUSH1 0x1 PUSH1 0x1 PUSH1 0xA0 SHL SUB AND DUP3 PUSH32 0x13A0F02E6E9FADDB0E65B0322B5C9568B4B301B95E6FE1DEBB60494C911F50E1 DUP14 DUP14 PUSH1 0x40 MLOAD PUSH2 0xA68 SWAP3 SWAP2 SWAP1 PUSH2 0x177D JUMP JUMPDEST PUSH1 0x40 MLOAD DUP1 SWAP2 SUB SWAP1 LOG3 POP SWAP10 SWAP9 POP POP POP POP POP POP POP POP POP JUMP JUMPDEST PUSH1 0x0 DUP3 DUP2 MSTORE PUSH1 0x4 PUSH1 0x20 MSTORE PUSH1 0x40 DUP2 KECCAK256 DUP1 SLOAD SWAP1 SWAP2 SUB PUSH2 0xAAE JUMPI PUSH1 0x40 MLOAD PUSH4 0x2FC1A59F PUSH1 0xE1 SHL DUP2 MSTORE PUSH1 0x4 ADD PUSH1 0x40 MLOAD DUP1 SWAP2 SUB SWAP1 REVERT JUMPDEST PUSH1 0x4 DUP2 ADD SLOAD PUSH1 0x1 PUSH1 0x1 PUSH1 0xA0 SHL SUB AND CALLER EQ PUSH2 0xADA JUMPI PUSH1 0x40 MLOAD PUSH3 0x82B429 PUSH1 0xE8 SHL DUP2 MSTORE PUSH1 0x4 ADD PUSH1 0x40 MLOAD DUP1 SWAP2 SUB SWAP1 REVERT JUMPDEST DUP2 CALLDATALOAD PUSH1 0x8 DUP3 ADD SWAP1 DUP2 SSTORE PUSH1 0x20 DUP4 ADD CALLDATALOAD PUSH1 0x9 DUP4 ADD SSTORE PUSH1 0x40 DUP4 ADD CALLDATALOAD PUSH1 0xA DUP4 ADD SSTORE DUP3 SWAP1 PUSH2 0x766 JUMP JUMPDEST PUSH1 0x0 DUP3 DUP2 MSTORE PUSH1 0x4 PUSH1 0x20 MSTORE PUSH1 0x40 DUP2 KECCAK256 DUP1 SLOAD SWAP1 SWAP2 SUB PUSH2 0xB2E JUMPI PUSH1 0x40 MLOAD PUSH4 0x2FC1A59F PUSH1 0xE1 SHL DUP2 MSTORE PUSH1 0x4 ADD PUSH1 0x40 MLOAD DUP1 SWAP2 SUB SWAP1 REVERT JUMPDEST PUSH1 0x4 DUP2 ADD SLOAD PUSH1 0x1 PUSH1 0x1 PUSH1 0xA0 SHL SUB AND CALLER EQ PUSH2 0xB5A JUMPI PUSH1 0x40 MLOAD PUSH3 0x82B429 PUSH1 0xE8 SHL DUP2 MSTORE PUSH1 0x4 ADD PUSH1 0x40 MLOAD DUP1 SWAP2 SUB SWAP1 REVERT JUMPDEST PUSH2 0xB63 DUP3 PUSH2 0xD42 JUMP JUMPDEST DUP2 PUSH1 0x5 DUP3 ADD PUSH2 0xB72 DUP3 DUP3 PUSH2 0x1662 JUMP JUMPDEST POP DUP4 SWAP1 POP PUSH32 0x7D35432957258BE51138A7CBADF1F571E917B5B5A4E860E059484E191D9EE564 PUSH2 0xBA4 PUSH1 0x20 DUP6 ADD DUP6 PUSH2 0x17AC JUMP JUMPDEST PUSH2 0xBB4 PUSH1 0x40 DUP7 ADD PUSH1 0x20 DUP8 ADD PUSH2 0x17AC JUMP JUMPDEST PUSH2 0xBC4 PUSH1 0x60 DUP8 ADD PUSH1 0x40 DUP9 ADD PUSH2 0x17AC JUMP JUMPDEST PUSH1 0x40 DUP1 MLOAD PUSH4 0xFFFFFFFF SWAP5 DUP6 AND DUP2 MSTORE SWAP3 DUP5 AND PUSH1 0x20 DUP5 ADD MSTORE SWAP3 AND DUP2 DUP4 ADD MSTORE SWAP1 MLOAD SWAP1 DUP2 SWAP1 SUB PUSH1 0x60 ADD SWAP1 LOG2 POP POP POP JUMP JUMPDEST PUSH2 0xBF8 PUSH2 0xCFC JUMP JUMPDEST PUSH1 0x1 PUSH1 0x1 PUSH1 0xA0 SHL SUB DUP2 AND PUSH2 0xC1F JUMPI PUSH1 0x40 MLOAD PUSH4 0xD92E233D PUSH1 0xE0 SHL DUP2 MSTORE PUSH1 0x4 ADD PUSH1 0x40 MLOAD DUP1 SWAP2 SUB SWAP1 REVERT JUMPDEST PUSH1 0x2 DUP1 SLOAD PUSH1 0x1 PUSH1 0x1 PUSH1 0xA0 SHL SUB NOT AND PUSH1 0x1 PUSH1 0x1 PUSH1 0xA0 SHL SUB DUP4 AND SWAP1 DUP2 OR SWAP1 SWAP2 SSTORE PUSH1 0x40 MLOAD PUSH32 0xB916D07C980006AB0BAE9D0DCC612A069BCBA68647E0C53E2A153FC1A6761EE4 SWAP1 PUSH1 0x0 SWAP1 LOG2 POP JUMP JUMPDEST PUSH2 0xC71 PUSH2 0xCFC JUMP JUMPDEST PUSH1 0x1 DUP1 SLOAD PUSH1 0x1 PUSH1 0x1 PUSH1 0xA0 SHL SUB DUP4 AND PUSH1 0x1 PUSH1 0x1 PUSH1 0xA0 SHL SUB NOT SWAP1 SWAP2 AND DUP2 OR SWAP1 SWAP2 SSTORE PUSH2 0xCA2 PUSH1 0x0 SLOAD PUSH1 0x1 PUSH1 0x1 PUSH1 0xA0 SHL SUB AND SWAP1 JUMP JUMPDEST PUSH1 0x1 PUSH1 0x1 PUSH1 0xA0 SHL SUB AND PUSH32 0x38D16B8CAC22D99FC7C124B9CD0DE2D3FA1FAEF420BFE791D8C362D765E22700 PUSH1 0x40 MLOAD PUSH1 0x40 MLOAD DUP1 SWAP2 SUB SWAP1 LOG3 POP JUMP JUMPDEST DUP1 CALLDATALOAD PUSH1 0x0 SUB PUSH2 0x7C7 JUMPI PUSH1 0x40 MLOAD PUSH4 0x97634399 PUSH1 0xE0 SHL DUP2 MSTORE PUSH1 0x4 ADD PUSH1 0x40 MLOAD DUP1 SWAP2 SUB SWAP1 REVERT JUMPDEST PUSH1 0x0 SLOAD PUSH1 0x1 PUSH1 0x1 PUSH1 0xA0 SHL SUB AND CALLER EQ PUSH2 0x77F JUMPI PUSH1 0x40 MLOAD PUSH4 0x118CDAA7 PUSH1 0xE0 SHL DUP2 MSTORE CALLER PUSH1 0x4 DUP3 ADD MSTORE PUSH1 0x24 ADD PUSH2 0x7B5 JUMP JUMPDEST PUSH1 0x1 DUP1 SLOAD PUSH1 0x1 PUSH1 0x1 PUSH1 0xA0 SHL SUB NOT AND SWAP1 SSTORE PUSH2 0x7C7 DUP2 PUSH2 0xE12 JUMP JUMPDEST PUSH1 0x0 PUSH2 0xD54 PUSH1 0xA0 DUP4 ADD PUSH1 0x80 DUP5 ADD PUSH2 0x1357 JUMP JUMPDEST PUSH1 0x1 PUSH1 0x1 PUSH1 0xA0 SHL SUB AND EQ DUP1 PUSH2 0xD81 JUMPI POP PUSH1 0x0 PUSH2 0xD76 PUSH1 0xC0 DUP4 ADD PUSH1 0xA0 DUP5 ADD PUSH2 0x1357 JUMP JUMPDEST PUSH1 0x1 PUSH1 0x1 PUSH1 0xA0 SHL SUB AND EQ JUMPDEST ISZERO PUSH2 0xD9F JUMPI PUSH1 0x40 MLOAD PUSH4 0xD92E233D PUSH1 0xE0 SHL DUP2 MSTORE PUSH1 0x4 ADD PUSH1 0x40 MLOAD DUP1 SWAP2 SUB SWAP1 REVERT JUMPDEST PUSH2 0xDAF PUSH1 0x60 DUP3 ADD PUSH1 0x40 DUP4 ADD PUSH2 0x17AC JUMP JUMPDEST PUSH4 0xFFFFFFFF AND PUSH2 0xDC5 PUSH1 0x40 DUP4 ADD PUSH1 0x20 DUP5 ADD PUSH2 0x17AC JUMP JUMPDEST PUSH4 0xFFFFFFFF AND PUSH2 0xDD8 PUSH1 0x20 DUP5 ADD DUP5 PUSH2 0x17AC JUMP JUMPDEST PUSH4 0xFFFFFFFF AND PUSH2 0xDE8 SWAP2 SWAP1 PUSH2 0x175C JUMP JUMPDEST PUSH2 0xDF2 SWAP2 SWAP1 PUSH2 0x175C JUMP JUMPDEST PUSH1 0x64 EQ PUSH2 0x7C7 JUMPI PUSH1 0x40 MLOAD PUSH4 0x6EDCC523 PUSH1 0xE0 SHL DUP2 MSTORE PUSH1 0x4 ADD PUSH1 0x40 MLOAD DUP1 SWAP2 SUB SWAP1 REVERT JUMPDEST PUSH1 0x0 DUP1 SLOAD PUSH1 0x1 PUSH1 0x1 PUSH1 0xA0 SHL SUB DUP4 DUP2 AND PUSH1 0x1 PUSH1 0x1 PUSH1 0xA0 SHL SUB NOT DUP4 AND DUP2 OR DUP5 SSTORE PUSH1 0x40 MLOAD SWAP2 SWAP1 SWAP3 AND SWAP3 DUP4 SWAP2 PUSH32 0x8BE0079C531659141344CD1FD0A4F28419497F9722A3DAAFE3B4186F6B6457E0 SWAP2 SWAP1 LOG3 POP POP JUMP JUMPDEST PUSH1 0x40 MLOAD DUP1 PUSH2 0x140 ADD PUSH1 0x40 MSTORE DUP1 PUSH1 0x0 DUP2 MSTORE PUSH1 0x20 ADD PUSH1 0x60 DUP2 MSTORE PUSH1 0x20 ADD PUSH1 0x60 DUP2 MSTORE PUSH1 0x20 ADD PUSH1 0x60 DUP2 MSTORE PUSH1 0x20 ADD PUSH1 0x0 PUSH1 0x1 PUSH1 0x1 PUSH1 0xA0 SHL SUB AND DUP2 MSTORE PUSH1 0x20 ADD PUSH2 0xF00 PUSH1 0x40 MLOAD DUP1 PUSH1 0xC0 ADD PUSH1 0x40 MSTORE DUP1 PUSH1 0x0 PUSH4 0xFFFFFFFF AND DUP2 MSTORE PUSH1 0x20 ADD PUSH1 0x0 PUSH4 0xFFFFFFFF AND DUP2 MSTORE PUSH1 0x20 ADD PUSH1 0x0 PUSH4 0xFFFFFFFF AND DUP2 MSTORE PUSH1 0x20 ADD PUSH1 0x0 PUSH1 0x1 PUSH1 0x1 PUSH1 0xA0 SHL SUB AND DUP2 MSTORE PUSH1 0x20 ADD PUSH1 0x0 PUSH1 0x1 PUSH1 0x1 PUSH1 0xA0 SHL SUB AND DUP2 MSTORE PUSH1 0x20 ADD PUSH1 0x0 PUSH1 0x1 PUSH1 0x1 PUSH1 0xA0 SHL SUB AND DUP2 MSTORE POP SWAP1 JUMP JUMPDEST DUP2 MSTORE PUSH1 0x20 ADD PUSH2 0xF29 PUSH1 0x40 MLOAD DUP1 PUSH1 0x60 ADD PUSH1 0x40 MSTORE DUP1 PUSH1 0x0 DUP2 MSTORE PUSH1 0x20 ADD PUSH1 0x0 DUP2 MSTORE PUSH1 0x20 ADD PUSH1 0x0 DUP2 MSTORE POP SWAP1 JUMP JUMPDEST DUP2 MSTORE PUSH1 0x20 ADD PUSH2 0xF52 PUSH1 0x40 MLOAD DUP1 PUSH1 0x60 ADD PUSH1 0x40 MSTORE DUP1 PUSH1 0x0 DUP2 MSTORE PUSH1 0x20 ADD PUSH1 0x0 DUP2 MSTORE PUSH1 0x20 ADD PUSH1 0x60 DUP2 MSTORE POP SWAP1 JUMP JUMPDEST DUP2 MSTORE PUSH1 0x0 PUSH1 0x20 DUP3 ADD DUP2 SWAP1 MSTORE PUSH1 0x40 SWAP1 SWAP2 ADD MSTORE SWAP1 JUMP JUMPDEST PUSH1 0x0 PUSH1 0x20 DUP3 DUP5 SUB SLT ISZERO PUSH2 0xF78 JUMPI PUSH1 0x0 DUP1 REVERT JUMPDEST POP CALLDATALOAD SWAP2 SWAP1 POP JUMP JUMPDEST PUSH1 0x0 DUP2 MLOAD DUP1 DUP5 MSTORE PUSH1 0x0 JUMPDEST DUP2 DUP2 LT ISZERO PUSH2 0xFA5 JUMPI PUSH1 0x20 DUP2 DUP6 ADD DUP2 ADD MLOAD DUP7 DUP4 ADD DUP3 ADD MSTORE ADD PUSH2 0xF89 JUMP JUMPDEST POP PUSH1 0x0 PUSH1 0x20 DUP3 DUP7 ADD ADD MSTORE PUSH1 0x20 PUSH1 0x1F NOT PUSH1 0x1F DUP4 ADD AND DUP6 ADD ADD SWAP2 POP POP SWAP3 SWAP2 POP POP JUMP JUMPDEST DUP1 MLOAD DUP3 MSTORE PUSH1 0x20 DUP2 ADD MLOAD PUSH1 0x20 DUP4 ADD MSTORE PUSH1 0x0 PUSH1 0x40 DUP3 ADD MLOAD PUSH1 0x60 PUSH1 0x40 DUP6 ADD MSTORE PUSH2 0xFEE PUSH1 0x60 DUP6 ADD DUP3 PUSH2 0xF7F JUMP JUMPDEST SWAP5 SWAP4 POP POP POP POP JUMP JUMPDEST PUSH1 0x20 DUP2 MSTORE DUP2 MLOAD PUSH1 0x20 DUP3 ADD MSTORE PUSH1 0x0 PUSH1 0x20 DUP4 ADD MLOAD PUSH2 0x220 DUP1 PUSH1 0x40 DUP6 ADD MSTORE PUSH2 0x101F PUSH2 0x240 DUP6 ADD DUP4 PUSH2 0xF7F JUMP JUMPDEST SWAP2 POP PUSH1 0x40 DUP6 ADD MLOAD PUSH1 0x1F NOT DUP1 DUP7 DUP6 SUB ADD PUSH1 0x60 DUP8 ADD MSTORE PUSH2 0x103D DUP5 DUP4 PUSH2 0xF7F JUMP JUMPDEST SWAP4 POP PUSH1 0x60 DUP8 ADD MLOAD SWAP2 POP DUP1 DUP7 DUP6 SUB ADD PUSH1 0x80 DUP8 ADD MSTORE PUSH2 0x105A DUP5 DUP4 PUSH2 0xF7F JUMP JUMPDEST SWAP4 POP PUSH1 0x80 DUP8 ADD MLOAD SWAP2 POP PUSH2 0x1078 PUSH1 0xA0 DUP8 ADD DUP4 PUSH1 0x1 PUSH1 0x1 PUSH1 0xA0 SHL SUB AND SWAP1 MSTORE JUMP JUMPDEST PUSH1 0xA0 DUP8 DUP2 ADD MLOAD DUP1 MLOAD PUSH4 0xFFFFFFFF SWAP1 DUP2 AND PUSH1 0xC0 DUP11 ADD MSTORE PUSH1 0x20 DUP3 ADD MLOAD DUP2 AND PUSH1 0xE0 DUP11 ADD MSTORE PUSH1 0x40 DUP3 ADD MLOAD AND PUSH2 0x100 DUP10 ADD MSTORE PUSH1 0x60 DUP2 ADD MLOAD PUSH1 0x1 PUSH1 0x1 PUSH1 0xA0 SHL SUB SWAP1 DUP2 AND PUSH2 0x120 DUP11 ADD MSTORE PUSH1 0x80 DUP3 ADD MLOAD DUP2 AND PUSH2 0x140 DUP11 ADD MSTORE SWAP2 DUP2 ADD MLOAD SWAP1 SWAP2 AND PUSH2 0x160 DUP9 ADD MSTORE SWAP2 POP PUSH1 0xC0 DUP8 ADD MLOAD DUP1 MLOAD PUSH2 0x180 DUP9 ADD MSTORE PUSH1 0x20 DUP2 ADD MLOAD PUSH2 0x1A0 DUP9 ADD MSTORE PUSH1 0x40 DUP2 ADD MLOAD PUSH2 0x1C0 DUP9 ADD MSTORE SWAP2 POP PUSH1 0xE0 DUP8 ADD MLOAD SWAP2 POP DUP1 DUP7 DUP6 SUB ADD PUSH2 0x1E0 DUP8 ADD MSTORE POP PUSH2 0x1119 DUP4 DUP3 PUSH2 0xFC5 JUMP JUMPDEST SWAP3 POP POP PUSH2 0x100 DUP6 ADD MLOAD PUSH2 0x1139 PUSH2 0x200 DUP7 ADD DUP3 PUSH8 0xFFFFFFFFFFFFFFFF AND SWAP1 MSTORE JUMP JUMPDEST POP PUSH2 0x120 DUP6 ADD MLOAD DUP1 ISZERO ISZERO DUP6 DUP4 ADD MSTORE POP SWAP1 SWAP5 SWAP4 POP POP POP POP JUMP JUMPDEST PUSH1 0x0 PUSH1 0x60 DUP3 DUP5 SUB SLT ISZERO PUSH2 0x1163 JUMPI PUSH1 0x0 DUP1 REVERT JUMPDEST POP SWAP2 SWAP1 POP JUMP JUMPDEST PUSH1 0x0 DUP1 PUSH1 0x40 DUP4 DUP6 SUB SLT ISZERO PUSH2 0x117C JUMPI PUSH1 0x0 DUP1 REVERT JUMPDEST DUP3 CALLDATALOAD SWAP2 POP PUSH1 0x20 DUP4 ADD CALLDATALOAD PUSH8 0xFFFFFFFFFFFFFFFF DUP2 GT ISZERO PUSH2 0x119A JUMPI PUSH1 0x0 DUP1 REVERT JUMPDEST PUSH2 0x11A6 DUP6 DUP3 DUP7 ADD PUSH2 0x1151 JUMP JUMPDEST SWAP2 POP POP SWAP3 POP SWAP3 SWAP1 POP JUMP JUMPDEST PUSH1 0x0 DUP1 DUP4 PUSH1 0x1F DUP5 ADD SLT PUSH2 0x11C2 JUMPI PUSH1 0x0 DUP1 REVERT JUMPDEST POP DUP2 CALLDATALOAD PUSH8 0xFFFFFFFFFFFFFFFF DUP2 GT ISZERO PUSH2 0x11DA JUMPI PUSH1 0x0 DUP1 REVERT JUMPDEST PUSH1 0x20 DUP4 ADD SWAP2 POP DUP4 PUSH1 0x20 DUP3 DUP6 ADD ADD GT ISZERO PUSH2 0x11F2 JUMPI PUSH1 0x0 DUP1 REVERT JUMPDEST SWAP3 POP SWAP3 SWAP1 POP JUMP JUMPDEST PUSH1 0x0 PUSH1 0xC0 DUP3 DUP5 SUB SLT ISZERO PUSH2 0x1163 JUMPI PUSH1 0x0 DUP1 REVERT JUMPDEST PUSH1 0x0 DUP1 PUSH1 0x0 DUP1 PUSH1 0x0 DUP1 PUSH1 0x0 DUP1 PUSH1 0x0 PUSH2 0x1A0 DUP11 DUP13 SUB SLT ISZERO PUSH2 0x122A JUMPI PUSH1 0x0 DUP1 REVERT JUMPDEST DUP10 CALLDATALOAD PUSH8 0xFFFFFFFFFFFFFFFF DUP1 DUP3 GT ISZERO PUSH2 0x1242 JUMPI PUSH1 0x0 DUP1 REVERT JUMPDEST PUSH2 0x124E DUP14 DUP4 DUP15 ADD PUSH2 0x11B0 JUMP JUMPDEST SWAP1 SWAP12 POP SWAP10 POP PUSH1 0x20 DUP13 ADD CALLDATALOAD SWAP2 POP DUP1 DUP3 GT ISZERO PUSH2 0x1267 JUMPI PUSH1 0x0 DUP1 REVERT JUMPDEST PUSH2 0x1273 DUP14 DUP4 DUP15 ADD PUSH2 0x11B0 JUMP JUMPDEST SWAP1 SWAP10 POP SWAP8 POP PUSH1 0x40 DUP13 ADD CALLDATALOAD SWAP2 POP DUP1 DUP3 GT ISZERO PUSH2 0x128C JUMPI PUSH1 0x0 DUP1 REVERT JUMPDEST PUSH2 0x1298 DUP14 DUP4 DUP15 ADD PUSH2 0x11B0 JUMP JUMPDEST SWAP1 SWAP8 POP SWAP6 POP DUP6 SWAP2 POP PUSH2 0x12AD DUP14 PUSH1 0x60 DUP15 ADD PUSH2 0x11F9 JUMP JUMPDEST SWAP5 POP PUSH2 0x12BD DUP14 PUSH2 0x120 DUP15 ADD PUSH2 0x1151 JUMP JUMPDEST SWAP4 POP PUSH2 0x180 DUP13 ADD CALLDATALOAD SWAP2 POP DUP1 DUP3 GT ISZERO PUSH2 0x12D4 JUMPI PUSH1 0x0 DUP1 REVERT JUMPDEST POP PUSH2 0x12E1 DUP13 DUP3 DUP14 ADD PUSH2 0x1151 JUMP JUMPDEST SWAP2 POP POP SWAP3 SWAP6 SWAP9 POP SWAP3 SWAP6 SWAP9 POP SWAP3 SWAP6 SWAP9 JUMP JUMPDEST PUSH1 0x0 DUP1 PUSH1 0x80 DUP4 DUP6 SUB SLT ISZERO PUSH2 0x1304 JUMPI PUSH1 0x0 DUP1 REVERT JUMPDEST DUP3 CALLDATALOAD SWAP2 POP PUSH2 0x1315 DUP5 PUSH1 0x20 DUP6 ADD PUSH2 0x1151 JUMP JUMPDEST SWAP1 POP SWAP3 POP SWAP3 SWAP1 POP JUMP JUMPDEST PUSH1 0x0 DUP1 PUSH1 0xE0 DUP4 DUP6 SUB SLT ISZERO PUSH2 0x1331 JUMPI PUSH1 0x0 DUP1 REVERT JUMPDEST DUP3 CALLDATALOAD SWAP2 POP PUSH2 0x1315 DUP5 PUSH1 0x20 DUP6 ADD PUSH2 0x11F9 JUMP JUMPDEST PUSH1 0x1 PUSH1 0x1 PUSH1 0xA0 SHL SUB DUP2 AND DUP2 EQ PUSH2 0x7C7 JUMPI PUSH1 0x0 DUP1 REVERT JUMPDEST PUSH1 0x0 PUSH1 0x20 DUP3 DUP5 SUB SLT ISZERO PUSH2 0x1369 JUMPI PUSH1 0x0 DUP1 REVERT JUMPDEST DUP2 CALLDATALOAD PUSH2 0x1374 DUP2 PUSH2 0x1342 JUMP JUMPDEST SWAP4 SWAP3 POP POP POP JUMP JUMPDEST PUSH1 0x1 DUP2 DUP2 SHR SWAP1 DUP3 AND DUP1 PUSH2 0x138F JUMPI PUSH1 0x7F DUP3 AND SWAP2 POP JUMPDEST PUSH1 0x20 DUP3 LT DUP2 SUB PUSH2 0x1163 JUMPI PUSH4 0x4E487B71 PUSH1 0xE0 SHL PUSH1 0x0 MSTORE PUSH1 0x22 PUSH1 0x4 MSTORE PUSH1 0x24 PUSH1 0x0 REVERT JUMPDEST PUSH1 0x0 DUP1 DUP4 CALLDATALOAD PUSH1 0x1E NOT DUP5 CALLDATASIZE SUB ADD DUP2 SLT PUSH2 0x13C6 JUMPI PUSH1 0x0 DUP1 REVERT JUMPDEST DUP4 ADD DUP1 CALLDATALOAD SWAP2 POP PUSH8 0xFFFFFFFFFFFFFFFF DUP3 GT ISZERO PUSH2 0x13E1 JUMPI PUSH1 0x0 DUP1 REVERT JUMPDEST PUSH1 0x20 ADD SWAP2 POP CALLDATASIZE DUP2 SWAP1 SUB DUP3 SGT ISZERO PUSH2 0x11F2 JUMPI PUSH1 0x0 DUP1 REVERT JUMPDEST PUSH4 0x4E487B71 PUSH1 0xE0 SHL PUSH1 0x0 MSTORE PUSH1 0x41 PUSH1 0x4 MSTORE PUSH1 0x24 PUSH1 0x0 REVERT JUMPDEST PUSH1 0x1F DUP3 GT ISZERO PUSH2 0x1458 JUMPI PUSH1 0x0 DUP2 PUSH1 0x0 MSTORE PUSH1 0x20 PUSH1 0x0 KECCAK256 PUSH1 0x1F DUP6 ADD PUSH1 0x5 SHR DUP2 ADD PUSH1 0x20 DUP7 LT ISZERO PUSH2 0x1435 JUMPI POP DUP1 JUMPDEST PUSH1 0x1F DUP6 ADD PUSH1 0x5 SHR DUP3 ADD SWAP2 POP JUMPDEST DUP2 DUP2 LT ISZERO PUSH2 0x1454 JUMPI DUP3 DUP2 SSTORE PUSH1 0x1 ADD PUSH2 0x1441 JUMP JUMPDEST POP POP POP JUMPDEST POP POP POP JUMP JUMPDEST PUSH8 0xFFFFFFFFFFFFFFFF DUP4 GT ISZERO PUSH2 0x1475 JUMPI PUSH2 0x1475 PUSH2 0x13F6 JUMP JUMPDEST PUSH2 0x1489 DUP4 PUSH2 0x1483 DUP4 SLOAD PUSH2 0x137B JUMP JUMPDEST DUP4 PUSH2 0x140C JUMP JUMPDEST PUSH1 0x0 PUSH1 0x1F DUP5 GT PUSH1 0x1 DUP2 EQ PUSH2 0x14BD JUMPI PUSH1 0x0 DUP6 ISZERO PUSH2 0x14A5 JUMPI POP DUP4 DUP3 ADD CALLDATALOAD JUMPDEST PUSH1 0x0 NOT PUSH1 0x3 DUP8 SWAP1 SHL SHR NOT AND PUSH1 0x1 DUP7 SWAP1 SHL OR DUP4 SSTORE PUSH2 0x766 JUMP JUMPDEST PUSH1 0x0 DUP4 DUP2 MSTORE PUSH1 0x20 SWAP1 KECCAK256 PUSH1 0x1F NOT DUP7 AND SWAP1 DUP4 JUMPDEST DUP3 DUP2 LT ISZERO PUSH2 0x14EE JUMPI DUP7 DUP6 ADD CALLDATALOAD DUP3 SSTORE PUSH1 0x20 SWAP5 DUP6 ADD SWAP5 PUSH1 0x1 SWAP1 SWAP3 ADD SWAP2 ADD PUSH2 0x14CE JUMP JUMPDEST POP DUP7 DUP3 LT ISZERO PUSH2 0x150B JUMPI PUSH1 0x0 NOT PUSH1 0xF8 DUP9 PUSH1 0x3 SHL AND SHR NOT DUP5 DUP8 ADD CALLDATALOAD AND DUP2 SSTORE JUMPDEST POP POP PUSH1 0x1 DUP6 PUSH1 0x1 SHL ADD DUP4 SSTORE POP POP POP POP POP JUMP JUMPDEST DUP2 CALLDATALOAD DUP2 SSTORE PUSH1 0x1 PUSH1 0x20 DUP1 DUP5 ADD CALLDATALOAD PUSH1 0x1 DUP5 ADD SSTORE PUSH1 0x2 DUP4 ADD PUSH1 0x40 DUP6 ADD CALLDATALOAD PUSH1 0x1E NOT DUP7 CALLDATASIZE SUB ADD DUP2 SLT PUSH2 0x1549 JUMPI PUSH1 0x0 DUP1 REVERT JUMPDEST DUP6 ADD DUP1 CALLDATALOAD PUSH8 0xFFFFFFFFFFFFFFFF DUP2 GT ISZERO PUSH2 0x1562 JUMPI PUSH1 0x0 DUP1 REVERT JUMPDEST DUP1 CALLDATASIZE SUB DUP5 DUP4 ADD SGT ISZERO PUSH2 0x1573 JUMPI PUSH1 0x0 DUP1 REVERT JUMPDEST PUSH2 0x1587 DUP2 PUSH2 0x1581 DUP6 SLOAD PUSH2 0x137B JUMP JUMPDEST DUP6 PUSH2 0x140C JUMP JUMPDEST PUSH1 0x0 PUSH1 0x1F DUP3 GT PUSH1 0x1 DUP2 EQ PUSH2 0x15BD JUMPI PUSH1 0x0 DUP4 ISZERO PUSH2 0x15A5 JUMPI POP DUP4 DUP3 ADD DUP7 ADD CALLDATALOAD JUMPDEST PUSH1 0x0 NOT PUSH1 0x3 DUP6 SWAP1 SHL SHR NOT AND PUSH1 0x1 DUP5 SWAP1 SHL OR DUP6 SSTORE PUSH2 0x1618 JUMP JUMPDEST PUSH1 0x0 DUP6 DUP2 MSTORE PUSH1 0x20 SWAP1 KECCAK256 PUSH1 0x1F NOT DUP5 AND SWAP1 DUP4 JUMPDEST DUP3 DUP2 LT ISZERO PUSH2 0x15ED JUMPI DUP7 DUP6 ADD DUP10 ADD CALLDATALOAD DUP3 SSTORE SWAP4 DUP9 ADD SWAP4 SWAP1 DUP10 ADD SWAP1 DUP9 ADD PUSH2 0x15CE JUMP JUMPDEST POP DUP5 DUP3 LT ISZERO PUSH2 0x160C JUMPI PUSH1 0x0 NOT PUSH1 0xF8 DUP7 PUSH1 0x3 SHL AND SHR NOT DUP9 DUP6 DUP9 ADD ADD CALLDATALOAD AND DUP2 SSTORE JUMPDEST POP POP PUSH1 0x1 DUP4 PUSH1 0x1 SHL ADD DUP6 SSTORE JUMPDEST POP POP POP POP POP POP POP POP POP JUMP JUMPDEST PUSH4 0xFFFFFFFF DUP2 AND DUP2 EQ PUSH2 0x7C7 JUMPI PUSH1 0x0 DUP1 REVERT JUMPDEST PUSH1 0x0 DUP2 CALLDATALOAD PUSH2 0x7FF DUP2 PUSH2 0x1342 JUMP JUMPDEST DUP1 SLOAD PUSH1 0x1 PUSH1 0x1 PUSH1 0xA0 SHL SUB NOT AND PUSH1 0x1 PUSH1 0x1 PUSH1 0xA0 SHL SUB SWAP3 SWAP1 SWAP3 AND SWAP2 SWAP1 SWAP2 OR SWAP1 SSTORE JUMP JUMPDEST DUP2 CALLDATALOAD PUSH2 0x166D DUP2 PUSH2 0x1623 JUMP JUMPDEST PUSH4 0xFFFFFFFF DUP2 AND SWAP1 POP DUP2 SLOAD DUP2 PUSH4 0xFFFFFFFF NOT DUP3 AND OR DUP4 SSTORE PUSH1 0x20 DUP5 ADD CALLDATALOAD PUSH2 0x1692 DUP2 PUSH2 0x1623 JUMP JUMPDEST PUSH8 0xFFFFFFFF00000000 DUP2 PUSH1 0x20 SHL AND SWAP1 POP DUP1 DUP4 PUSH8 0xFFFFFFFFFFFFFFFF NOT DUP5 AND OR OR DUP5 SSTORE PUSH1 0x40 DUP6 ADD CALLDATALOAD PUSH2 0x16C2 DUP2 PUSH2 0x1623 JUMP JUMPDEST PUSH12 0xFFFFFFFF0000000000000000 DUP2 PUSH1 0x40 SHL AND DUP5 PUSH12 0xFFFFFFFFFFFFFFFFFFFFFFFF NOT DUP6 AND OR DUP4 OR OR DUP6 SSTORE POP POP POP POP PUSH2 0x1728 PUSH2 0x16FE PUSH1 0x60 DUP5 ADD PUSH2 0x1635 JUMP JUMPDEST DUP3 SLOAD PUSH12 0xFFFFFFFFFFFFFFFFFFFFFFFF AND PUSH1 0x60 SWAP2 SWAP1 SWAP2 SHL PUSH12 0xFFFFFFFFFFFFFFFFFFFFFFFF NOT AND OR DUP3 SSTORE JUMP JUMPDEST PUSH2 0x1740 PUSH2 0x1737 PUSH1 0x80 DUP5 ADD PUSH2 0x1635 JUMP JUMPDEST PUSH1 0x1 DUP4 ADD PUSH2 0x1642 JUMP JUMPDEST PUSH2 0x1758 PUSH2 0x174F PUSH1 0xA0 DUP5 ADD PUSH2 0x1635 JUMP JUMPDEST PUSH1 0x2 DUP4 ADD PUSH2 0x1642 JUMP JUMPDEST POP POP JUMP JUMPDEST DUP1 DUP3 ADD DUP1 DUP3 GT ISZERO PUSH2 0x7FF JUMPI PUSH4 0x4E487B71 PUSH1 0xE0 SHL PUSH1 0x0 MSTORE PUSH1 0x11 PUSH1 0x4 MSTORE PUSH1 0x24 PUSH1 0x0 REVERT JUMPDEST PUSH1 0x20 DUP2 MSTORE DUP2 PUSH1 0x20 DUP3 ADD MSTORE DUP2 DUP4 PUSH1 0x40 DUP4 ADD CALLDATACOPY PUSH1 0x0 DUP2 DUP4 ADD PUSH1 0x40 SWAP1 DUP2 ADD SWAP2 SWAP1 SWAP2 MSTORE PUSH1 0x1F SWAP1 SWAP3 ADD PUSH1 0x1F NOT AND ADD ADD SWAP2 SWAP1 POP JUMP JUMPDEST PUSH1 0x0 PUSH1 0x20 DUP3 DUP5 SUB SLT ISZERO PUSH2 0x17BE JUMPI PUSH1 0x0 DUP1 REVERT JUMPDEST DUP2 CALLDATALOAD PUSH2 0x1374 DUP2 PUSH2 0x1623 JUMP INVALID LOG2 PUSH5 0x6970667358 0x22 SLT KECCAK256 0x4B 0xF8 SWAP8 0x2A CALLDATALOAD 0x29 0xB7 MLOAD PUSH30 0x235C57C7EEFF0FDB7AA6AA2C1C5339845EC2A1E5D356FD64736F6C634300 ADDMOD XOR STOP CALLER "},"methodIdentifiers":{"PROTOCOL_FEE_BPS()":"be378228","acceptOwnership()":"79ba5097","createTalos(string,string,string,(uint32,uint32,uint32,address,address,address),(uint256,uint256,uint256),(uint256,uint256,string))":"cbdb314b","creatorOf(uint256)":"589a1743","deactivateTalos(uint256)":"1d8b9ef2","getTalos(uint256)":"047b094a","isActive(uint256)":"82afd23b","nextTalosId()":"95e3f86e","owner()":"8da5cb5b","pendingOwner()":"e30c3978","protocolFeeBps()":"35659fb8","protocolWallet()":"06d6e63f","renounceOwnership()":"715018a6","setProtocolWallet(address)":"f01e9a8b","transferOwnership(address)":"f2fde38b","updateKernel(uint256,(uint256,uint256,uint256))":"e556887a","updatePatron(uint256,(uint32,uint32,uint32,address,address,address))":"ed0c0d6f","updatePulse(uint256,(uint256,uint256,string))":"2132a99b"}}}}}